:020000040800F2
:10000000B025012039030008D7230008251D00086A
:10001000D52300088B0800087129000800000000A3
:10002000000000000000000000000000790200084D
:100030005509000800000000D5020008D923000877
:100040005303000853030008530300085303000838
:100050005303000853030008530300085303000828
:100060005303000853030008530300085303000818
:100070008D0800085303000899080008530300087E
:1000800053030008530300085303000853030008F8
:1000900053030008530300085303000853030008E8
:1000A00053030008A9240008530300085303000861
:1000B00053030008530300085303000853030008C8
:1000C00053030008530300085303000853030008B8
:1000D0005303000859290008530300086529000844
:1000E0005303000853030008530300085303000898
:1000F0005303000853030008530300085303000888
:100100005303000853030008530300085303000877
:100110005303000853030008530300085303000867
:100120005303000853030008A50800085303000800
:100130005303000853030008530300085303000847
:100140005303000853030008530300085303000837
:100150005303000853030008530300085303000827
:100160005303000853030008530300085303000817
:100170005303000853030008530300080000000065
:10018000530300085303000800F002F800F065F87C
:100190000AA090E8000C82448344AAF10107DA45E2
:1001A00001D100F05AF8AFF2090EBAE80F0013F0CF
:1001B000010F18BFFB1A43F001031847E0110300B9
:1001C000001203000A444FF0000C10F8013B13F03A
:1001D000070408BF10F8014B1D1108BF10F8015BA0
:1001E000641E05D010F8016B641E01F8016BF9D193
:1001F00013F0080F1EBF10F8014BAD1C0C1B09D1EA
:100200006D1E58BF01F801CBFAD505E014F8016B5B
:1002100001F8016B6D1EF9D59142D6D370470000ED
:100220000023002400250026103A28BF78C1FBD8FF
:10023000520728BF30C148BF0B6070471FB526F07A
:1002400075FD00F0FFFA04000020002126F014FCE8
:10025000401C60601FBD10B510BD00F0CEFA114605
:10026000FFF7ECFF20F038FB00F0FEFA03B4FFF7D5
:10027000F2FF03BC00F002FB2C4B19680868B0E8E1
:10028000F04F80F30988BFF36F8F4FF0000080F3C9
:10029000118870470000000008480068006880F37B
:1002A00008884FF0000080F3148862B661B6BFF38F
:1002B0004F8FBFF36F8F00DF00BF00BF08ED00E07E
:1002C000DFF80C00016841F470010160704700BF65
:1002D00088ED00E0EFF30980BFF36F8F134B1A68CE
:1002E0001EF0100F08BF20ED108A20E9F04F1060BB
:1002F00009B44FF0500080F31188BFF34F8FBFF364
:100300006F8F26F0F9F84FF0000080F3118809BCD8
:1003100019680868B0E8F04F1EF0100F08BFB0EC85
:10032000108A80F30988BFF36F8F70471400002094
:10033000EFF30580704700000948804709480047EF
:10034000FEE7FEE7FEE7FEE7FEE7FEE7FEE7FEE785
:10035000FEE7FEE704480549054A064B70470000E2
:100360009924000889010008B0E10020B02501208F
:10037000B0E50020B0E5002053EA020C00F06980EF
:100380002DE9F04B4FF00006002B1FBFB3FA83F5A9
:1003900003FA05F424FA05F65E4012BF1643B2FADA
:1003A00082F502FA05F4C5F120051EBF22FA05FC0C
:1003B00044EA0C04203556EA044C4FEA144418BFB2
:1003C000641C4FF000084FF00009904271EB030CE1
:1003D00039D3002919BFB1FA81F701FA07F6B0FA4B
:1003E00080F700FA07F6C7F120071EBF20FA07FCC6
:1003F00046EA0C062037B6FBF4FCA7EB0507103FD6
:1004000007F01F0BCBF120060CFA0BFB2CFA06F6BB
:1004100044BFB3460026202FA4BF5E464FF0000B1A
:100420005BEA060C08BF4FF0010B19EB0B09ABFBA5
:10043000027C48EB0608C01B06FB02CC0BFB03CC7E
:1004400071EB0C01C1E70B46024641464846BDE848
:10045000F08B13B54FF000004FF00001AFF30080B8
:10046000BDE81C40704770B5064600F0EFF8046820
:10047000054630460A22002100F0ECF82C6070BDE1
:10048000014A00F01FB900009C02002040EA01036D
:10049000024630B59B0710D14FF0013400E008C28E
:1004A00008C91D1B9D4315EAC41FF8D013F0FF01B6
:1004B00002F8011B0DD01B0AF8E711F8013B002BD5
:1004C00002F8013B05D011F8013B002B02F8013B7B
:1004D000F3D130BD10B5431C02E010F8011B71B11F
:1004E0008107FAD14FF0013202C88C1A8C4314EA0A
:1004F000C211F9D0C01A0A0603D0C01E10BDC01A1E
:1005000010BD0A0401D0801E10BD0902FCD0401E9F
:1005100010BD10B5203AC0F00B80B1E81850203A59
:10052000A0E81850B1E81850A0E81850BFF4F5AF93
:100530005FEA027C24BFB1E81850A0E8185044BF1D
:1005400018C918C0BDE810405FEA827C24BF51F88A
:10055000043B40F8043B08BF7047D20728BF31F87E
:10056000023B48BF11F8012B28BF20F8023B48BFCF
:1005700000F8012B70474FF0000200B51346944677
:100580009646203922BFA0E80C50A0E80C50B1F1EB
:100590002001BFF4F7AF090728BFA0E80C5048BFFF
:1005A0000CC05DF804EB890028BF40F8042B08BF9D
:1005B000704748BF20F8022B11F0804F18BF00F899
:1005C000012B70474FF0013C50F8042B51F8043BCD
:1005D0009A4221D1A2EB0C03934313EACC1317D117
:1005E00050F8042B51F8043B9A4215D1A2EB0C03AE
:1005F000934313EACC130BD150F8042B51F8043B6E
:100600009A4209D1A2EB0C03934313EACC13DBD03B
:100610004FF00000704700BFD01A01BAB1FA81F163
:1006200001F0180122FA01F0CB40C1F12001DBB248
:10063000C0B2C01A2CFA01F3D11A914311EAC311C6
:10064000E6D1704770477047704700000048704718
:1006500050E100202DE9F04791460F4680460446C0
:10066000002614F8015B2DB100F052F80068405DDF
:10067000C007F6D12B2D02D02D2D18D0641E4A466E
:100680003946204600F04CF827B13968A14201D123
:10069000C7F800804FF0020471050BD540420028D6
:1006A00003DDFFF7D3FF0460A007BDE8F08746F441
:1006B0008066E4E70028F8DAFFF7C8FF04606FF00F
:1006C0000040F2E72DE9F04115460E46040002D144
:1006D0002C6804B90BA4204600F081F8044420786B
:1006E00070B127463146384600F069F80444207856
:1006F00010B1002004F8010B38462C60BDE8F081F1
:100700000027F9E7000000000048704750E1002092
:1007100010B500F097F8001D10BD00BF5D6302002A
:100720002DE9F05F824615468B4600270AF1010449
:10073000B9460078302801D09DB113E014F8010BC0
:100740000127782803D0582801D045B10AE00DB11F
:10075000102D07D1002714F8010B102502E0082501
:1007600000E00A250026B0460EE005FB080005FB68
:1007700006F101271FFA80F801EB1046B6F5803F1D
:1007800000D3B94614F8010B294600F05FF80028A1
:10079000EBDABBF1000F05D00FB1641E00E0544648
:1007A000CBF80040B9F1000F06D0FFF74FFF022150
:1007B0000160C81EBDE8F09F48EA0640FAE730B580
:1007C00003461D781DB10A4603E0AC4201D1181A58
:1007D00030BD12F8014B002CF7D15B1CF1E730B5AE
:1007E00003461D783DB10A4612F8014B1CB1AC42DC
:1007F000FAD15B1CF5E7181A30BD7546FFF784FF88
:10080000AE4605006946534620F00700854618B0FD
:1008100020B5FFF79FFDBDE820404FF000064FF0E8
:1008200000074FF000084FF0000B21F00701AC4625
:10083000ACE8C009ACE8C009ACE8C009ACE8C00944
:100840008D4670470048704770E100203A2800D27A
:10085000303820F02002412A01D3A2F1370088422B
:1008600001D34FF0FF30704710B50446AFF300805E
:100870002046BDE81040FFF7F9BC000001491820F0
:10088000ABBEFEE7260002007047FEE7014800F01D
:10089000BFB80000C8060020014800F0B9B8000049
:1008A00068060020014800F0B3B8000008060020E8
:1008B00001681823CAB2103AB2FBF3F2054B6FF38A
:1008C0000901032A9B5CC36500D9091D816508469F
:1008D00070470000366D020810B5014600208B6994
:1008E0008A6A4FF0C07453B1B3F5005F15D072B18E
:1008F000012A0CD0022A0AD0032A09D104E01AB135
:10090000012A06D0022A03D1C96AC90100D50120F3
:1009100010BDC96AA142FAD010BD002AF7D0012A41
:10092000F2D0022AF3D0032AF3D010BD30B5046808
:10093000256825F480252560046863608368402B62
:10094000036803D099600068C26030BD9A60006897
:10095000C16030BD704772B6FEE72DE9F041044634
:10096000876D00F0D7FA064694F835000025022876
:1009700006D08020606584F834500120BDE8F08105
:100980002068016821F0160101602068416921F0AA
:1009900080014161206C08B9A06C20B12068016819
:1009A00021F0080101602068016821F00101016067
:1009B0000CE000F0AFFA801B052807D92020606505
:1009C000032084F8350084F83450D7E720680068A5
:1009D000C007EED194F85C103F208840B860012039
:1009E00084F8350084F834500020C7E790F83510BB
:1009F000022903D08021416501207047052180F83C
:100A000035100068016821F0010101600020704785
:100A10002DE9F84304464FF00009CDF800906348F3
:100A20004FF41651A56D0068B0FBF1F72E6894F8ED
:100A30005C10082000FA01F131420FD021680A68E9
:100A400052070BD50A6822F004020A6094F85C1081
:100A50008840A860606D40F00100606594F85C100B
:100A60004FF0010808FA01F0304208D021684969C6
:100A7000090604D5A860606D40F00200606594F836
:100A80005C1004208840304208D02168096889073A
:100A900004D5A860606D40F00400606594F85C10B7
:100AA00010208840304218D021680968090714D501
:100AB000A86020680168490304D50068000308D5D0
:100AC000A16C07E00168C90503D4016821F00801A1
:100AD0000160216C09B12046884794F85C10202001
:100AE0008840304231D021680968C9062DD5A860F8
:100AF00094F8350005282068016806D0490347D5D9
:100B0000006800031DD4616C1CE021F01601016037
:100B10002068416921F080014161206C08B9A06C16
:100B200020B12068016821F00801016094F85C1090
:100B30003F208840A86084F8358084F83490216D87
:100B40001FE0E16B09B120468847606D00282BD07B
:100B5000606DC00714D0052084F835002068016856
:100B600021F0010101600098401C0090B84203D8B8
:100B700020680068C007F6D184F8358084F8349086
:100B8000E16C002910D001B02046BDE8F0430847D1
:100B90000168C905D5D4016821F01001016084F80D
:100BA000358084F83490CCE7BDE8F883100000204D
:100BB0002DE9F041044600F0ADF906465CB1022093
:100BC00084F83500002584F834502068016821F04D
:100BD000010101600DE00120BDE8F08100F09AF90B
:100BE000801B052805D920206065032084F8350086
:100BF000F2E720680068C007F0D122681168204839
:100C00000140D4E901031843D4E9033633431843C0
:100C100063691843A3691843E3691843236A1843B7
:100C20000843616A042903D1D4E90B13194308432B
:100C3000106020684069666A20F0070130460E4364
:100C4000012704280CD1A06A0643E06A40B120467F
:100C5000FFF742FE20B14020606584F83570BAE7A6
:100C6000206846612046FFF723FE94F85C203F2170
:100C700091408160656584F835700020ACE7000024
:100C80003F8010F02DE9F0410446866D90F8340065
:100C9000002501280DD0012084F8340094F8357027
:100CA0000020012F07D084F8340002252846BDE833
:100CB000F0810220FBE7022784F83570606520464A
:100CC000FFF734FE94F85C103F208840B060206845
:100CD000016841F016010160206C20B120680168B4
:100CE00041F0080101602068016841F001010160E4
:100CF000DCE7000070B5044600F00CF90546601C06
:100D000002D004480078044400F004F9401BA042DB
:100D1000FAD370BD040000202DE9F84FDFF8BCA124
:100D20000022012503264FF00F090AF1040BAAF156
:100D3000040E00BF0B6805FA02F42340A34270D1F1
:100D40000F7907F00307012F01D0022F16D1876812
:100D50004FEA420806FA08FC27EA0C07D1F80CC053
:100D60000CFA08FC4CEA070CC0F808C04768A74317
:100D70000C79C4F3001494403C4344600C79E44380
:100D8000A4070AD0C4684FEA420C06FA0CF7BC4329
:100D90008F6807FA0CF72743C7600C7904F0030447
:100DA000022C12D1D40800EB840CDCF82040570749
:100DB000FF0E09FA07F824EA0804D1F8108008FAAF
:100DC00007F848EA0408CCF8208004684FEA420C8F
:100DD00006FA0CF7BC430F7907F0030707FA0CF784
:100DE000274307604C6814F4403F70D03C4C2768A0
:100DF00047F480472760246822F0030704F4804406
:100E00000094384C07EB040CDCF8084897074FEACD
:100E1000177809FA08F7BC43334FB84202D10027CC
:100E200024E054E0314FB84201D101271EE0304F99
:100E3000B84201D1022719E02E4FB84201D1032751
:100E400014E02D4FB84201D104270FE02B4FB842D8
:100E500001D105270AE02A4FB84201D1062705E053
:100E6000284FB84201D1072700E0082707FA08F702
:100E70002743CCF80878DAF800405746D1F804C088
:100E80009C435FEACC2C00D51C433C60DBF800405F
:100E90005F46D1F804C09C435FEA8C2C00D51C430C
:100EA0003C60DEF800407746D1F804C09C435FEA1E
:100EB0008C3C00D51C433C60084F083F3C68D1F88F
:100EC00004C09C435FEACC3C00D51C433C60521CF0
:100ED000102AFFF42FAFBDE8F88F0000083C014056
:100EE000443802400030014000000240000402404B
:100EF00000080240000C02400010024000140240B2
:100F000000180240001C02400AB1816170470904C8
:100F1000FBE70000014880687047000004000020E3
:100F20000248816802781144816070470400002003
:100F30000B4810B5016841F400710160016841F48B
:100F400080610160016841F480710160032000F05C
:100F500099F80F2000F006F800F04AF8002010BDC4
:100F6000003C024030B505461C4887B000240168AB
:100F700041F001010160006806A900F00100009045
:100F800001A800F02BF900F059F915494000B0FB19
:100F9000F1F11548134A491E026040F2E732C0E9F8
:100FA0000324C0E90114846100F040FB040012D165
:100FB0000D4800F069FB04000DD1192000F034F851
:100FC000102D07D200222946192000F03BF80748CF
:100FD000056000E0012407B0204630BD44380240DF
:100FE00040420F00000001402807002008000020B8
:100FF0000C4882B0016841F480410160006800F44F
:10100000804000900748001F016841F08051016056
:101010000068002200F0805000900F21901E02B066
:1010200000F010B844380240002809DB00F01F022D
:10103000012191404009800000F1E020C0F800113A
:1010400070470000F0B40E4B1B680C46C3F302233C
:10105000C3F10705042D00D90425191D072901D264
:10106000002300E0DB1E012606FA05F1491E21409F
:1010700099409E40761E16403143F0BC01F079BC89
:101080000CED00E0064900F0070208684FF6FF0388
:10109000184040EA0220034A1043086070470000ED
:1010A0000CED00E00000FA052DE9F0470E460500C2
:1010B00065D0DFF81481D8F80000F7B200F007001F
:1010C000B04207D288F80070D8F8000000F007009E
:1010D000B04254D128683D4C810712D5400703D552
:1010E000206840F4E05020602878000703D520688D
:1010F00040F4604020602068A96820F0F0000843B8
:1011000020602878C0072DD0304968680839012848
:1011100012D0022813D0032811D0096889070029AA
:101120002DDA216821F0030101432160FFF7F2FE6F
:10113000814641F2883A0EE009688903EFE70968C1
:101140008901ECE7FFF7E6FEA0EB0901514502D962
:101150000320BDE8F0872068696800F00C00B0EB60
:10116000810FEFD1D8F80010404601F00701B142DD
:1011700007D90770006800F00700B04201D00120D5
:10118000E7E72878400705D52068E96820F4E050B3
:10119000084320602878000706D52068296920F4D4
:1011A000604040EAC100206000F058F82168084A19
:1011B000C1F30311515CC840064908600648006845
:1011C000FFF7D0FE0020C4E7003C02400838024090
:1011D0003E6D020810000020080000200F2202606F
:1011E0000C4A136803F003034360136803F0F00331
:1011F0008360136803F4E053C36012684FF4E05354
:1012000003EAD20202610448006800F007000860A7
:101210007047000008380240003C0240044805497D
:1012200000680968044AC1F38221515CC8407047D4
:1012300010000020083802404E6D0208044805499D
:1012400000680968044AC1F34231515CC8407047E4
:1012500010000020083802404E6D0208154810B5F5
:10126000006810F00C02144813D04110042A0FD06B
:10127000082A0ED10F4C241F2268236802F03F0277
:101280005B0207D52068C0F38810A0FB010106E0CF
:10129000084610BD2168C1F38811A1FB000100239D
:1012A000FFF76AF82168C1F30141491C4900B0FB0E
:1012B000F1F010BD083802400024F4002DE9F84F89
:1012C00004006ED02078DFF84C93C007A9F1040524
:1012D0004AD009F104000168C1F38101012908D055
:1012E0000068C0F3810002280AD1D9F8000040024A
:1012F00006D52868800337D560680028E1D033E040
:101300006068B0F5803F10D0B0F5A02F286810D0ED
:1013100020F480302860286820F4802028606068ED
:10132000A8B1FFF7F7FD06460DE0286840F48030CD
:10133000F4E740F480202860F7E700BFFFF7EAFDFC
:10134000801B642873D828688003F7D50CE0FFF76A
:10135000E1FD064605E000BFFFF7DCFD801B6428C9
:10136000F0D828688003F7D42078DFF8AC828007B3
:101370004FF0000A3ED5A748001D016811F00C0F80
:1013800008D00068C0F3810002280BD1D9F8000012
:10139000400207D42868800716D5E068012800D1EC
:1013A00012E033E1E068B8B10120C8F80000FFF7AF
:1013B000B1FD064605E000BFFFF7ACFD801B02282B
:1013C000C0D828688007F7D52868216920F0F80080
:1013D00040EAC10028600DE0C8F800A0FFF79AFDC0
:1013E000064604E0FFF796FD801B02281FD82868F8
:1013F0008007F7D42078000722D5864F8748616997
:10140000703771B101210160FFF784FD064604E0E9
:10141000FFF780FD801B022809D838688007F7D5C0
:101420000EE0C0F800A0FFF775FD064605E082E07B
:10143000FFF770FD801B02287DD838688007F7D43D
:101440002078400768D5DFF8CCB100270BF13C0BC2
:10145000DBF80000C0000BD4DBF8001041F0805135
:10146000CBF80010DBF80000012700F0805000905E
:101470006B4E3068C00510D4306840F48070306026
:10148000FFF748FD009005E0FFF744FD0099401A82
:10149000022850D83068C005F6D55E4EA0686C367C
:1014A00001280FD00528306810D020F001003060EE
:1014B000306820F004003060A068B8B1FFF72AFD62
:1014C00000900FE0306840F00100F4E740F00400C5
:1014D0003060F7E7FFF71EFD0099411A41F28830AE
:1014E000814266D830688007F4D50EE0FFF712FD20
:1014F000009007E0FFF70EFD0099411A41F2883095
:10150000814256D830688007F4D42FB1DBF8001040
:1015100021F08051CBF80010A069C8B33D49091DE6
:101520000968C1F3810102294AD00228504607D038
:10153000C8F8600000E03CE0FFF7ECFC04463BE04C
:101540004746C8F86000FFF7E5FC064605E000BF27
:10155000FFF7E0FC801B02282BD828688001F7D415
:10156000D4E907010843A16A2E4A490802EB014168
:10157000626A41EA8211084394F82C1040EA016142
:10158000C9F8001001203866FFF7C4FC044606E0E5
:101590003EE000BFFFF7BEFC001B022809D8286808
:1015A0008001F7D534E000BFFFF7B4FC001B022830
:1015B00002D90320BDE8F88F28688001F4D427E021
:1015C0000128F7D0D9F80000E26900F480019142C7
:1015D0001CD1226A00F03F01914217D147F6C07139
:1015E000626A0140B1EB821F10D1A26A4FF0FF3353
:1015F00000F4403103EB5202B1EB024F06D194F8F4
:101600002C1000F07060B0EB016F01D00120D1E729
:101610000020CFE70438024000004742800E4742D6
:10162000007000400000FFFF7047704710B50400D5
:1016300003D094F83D0010B107E0012010BD002058
:1016400084F83C00204600F01EF8022084F83D009B
:10165000211D206800F02EFF012084F8460084F848
:101660003E0084F83F0084F8400084F8410084F88C
:10167000420084F8430084F8440084F8450084F86C
:101680003D00002010BD704790F83D10012901D0A9
:1016900001207047022180F83D100168CA6842F0BD
:1016A0000102CA6000681149884214D0B0F1804F2D
:1016B00011D00F4988420ED00E4988420BD00E49F6
:1016C000884208D00D49884205D00D49884202D091
:1016D0000C49884204D1816801F00701062903D032
:1016E000016841F0010101600020704700000140E5
:1016F0000004004000080040000C004000040140CD
:10170000004001400018004070472DE9F0410446B8
:101710000068C66805694FF00007A90713D5B1072F
:1017200011D5F91E016101202077206880698007AA
:10173000204602D0FFF7E8FF04E000F07EF82046E4
:1017400000F07CF82777680716D5700714D5216854
:101750006FF004000861022020772068806910F48F
:10176000407F204602D0FFF7CFFF04E000F065F88D
:10177000204600F063F82777280715D5300713D5E2
:1017800021686FF008000861042020772068C06994
:101790008007204602D0FFF7B7FF04E000F04DF8C5
:1017A000204600F04BF82777E80616D5F00614D54A
:1017B00021686FF010000861082020772068C06958
:1017C00010F4407F204602D0FFF79EFF04E000F0B7
:1017D00034F8204600F032F82777E80708D0F00701
:1017E00006D021686FF001000861204600F028F85B
:1017F000280608D5300606D521686FF080000861FC
:101800002046FFF711FF680608D5700606D5216847
:101810006FF040000861204600F01CF8A8060AD5C9
:10182000B00608D521686FF0200008612046BDE8A9
:10183000F041FFF7FABEBDE8F08170477047000045
:1018400000680349884201D1FFF76ABB7047000076
:10185000000001407047704770470000F8B501680C
:1018600004460868CA684B6910F00F0F4FF0000576
:1018700059D003F0010602F49077374365D0C107D1
:1018800005D0D10503D5616C41F0010161644107C8
:1018900005D5D90703D0616C41F00201616481076D
:1018A00005D5D90703D0616C41F0040161640107DB
:1018B00007D502F02001314303D0616C41F00801EB
:1018C0006164616C00293AD0800604D5900602D587
:1018D000204600F00AFF20684069616CC0F3801068
:1018E000090700D460B3204600F0CAFE20684069B2
:1018F000400621D52068143050E8001F21F0400137
:1019000040E80012002AF5D1E06BA8B172490165E8
:10191000E06BFFF76BF8002811D0E06B016D01B0B0
:10192000BDE8F040084783060FD593060DD5204645
:10193000BDE8F84000F0D9BE2046FFF78DFFF8BDA6
:101940002046FFF789FF6564F8BD266B2023012E32
:101950007ED1C6067CD5D6067AD508684868009040
:1019600048694FF0020640064DD5E26B10684068AA
:101970004FF480770004000C3AD0A18D814237D912
:10198000E085D069B8422DD020680C3050E8001FA7
:1019900021F4807140E80012002AF5D1206814304B
:1019A00050E8001F21F0010140E80012002AF5D1A3
:1019B0002068143050E8001F21F0400140E8001278
:1019C000002AF5D184F84230256320680C3050E8B5
:1019D000001F21F0100140E80012002AF5D1E06B51
:1019E000FEF7BBFF6663A08DE18D401A81B206E071
:1019F000A18D8142A8D1D069B842A5D166632046A5
:101A0000FFF729FFF8BDA08DE18D401A81B2E08D6E
:101A10000028F7D00029F5D020680C3050E8002FBE
:101A200022F4907240E80027002FF5D1206814308E
:101A300050E8002F22F0010240E80027002FF5D1E6
:101A400084F84230256320680C3050E8002F00E015
:101A500006E022F0100240E80023002BF3D1CDE78E
:101A600005062BD5150629D594F841002128C9D1A2
:101A7000A068B0F5805F01D12069B0B1206A411C37
:101A80002162216800784860E08C401E0004000C50
:101A9000E084B7D12068C16821F08001C16020686E
:101AA000C16841F04001C160F8BD206A0088C0F300
:101AB00008004860206A801C2062E5E74006F3D5F4
:101AC0005006F1D5CA68204622F04002CA6084F868
:101AD000413000F026F9F8BD8525000870B50400F6
:101AE00004D094F84100002510B106E0012070BD3B
:101AF00084F84050204600F023F8242084F8410068
:101B00002068C16821F40051C160204600F04EFEFB
:101B10002068016921F4904101612068416921F048
:101B20002A0141612068C16841F40051C1606564C7
:101B3000202084F8410084F842006563002070BDD5
:101B40002DE9F04387B0064614216846FEF713FDE1
:101B5000DFF83CC1022135684E48032207230024E8
:101B60008F064FF48069654537D14A4D1435D5F855
:101B700000C04CF0100CC5F800C02D6805F0100531
:101B80000595056845F001050560006800F0010055
:101B9000059050028DE8130069463F48CDE90323C4
:101BA000FFF7BAF83E4D3D482860C5E90174C5E924
:101BB00003496C61AC61EC612C6228466C62FEF7F3
:101BC000F7FF08B1FEF7C7FEF563002205212520C7
:101BD000AE63FFF737FA252055E0DFF8C8C065454A
:101BE00053D12C4D1035D5F800C04CF4802CC5F8DD
:101BF00000C02D6805F480250595056845F00205AF
:101C00000560006800F0020005904FF440608DE828
:101C1000130069462448CDE90323FFF77DF8204DE2
:101C200022486035B846E5E8020740204F4691C596
:101C30001B4845F814496030AC61EC612C626C6261
:101C4000FEF7B6FF08B1FEF786FEB563AE63144D2E
:101C50001648C03530382860C5E90184C5E9034716
:101C60006C61AC61EC612C6228466C62FEF7A0FFEF
:101C700008B1FEF770FEF563002205212720AE6350
:101C8000FFF7E0F92720FFF7CFF907B0BDE8F083B1
:101C90000010014030380240000002404064024021
:101CA000080600200048004000040240586002403E
:101CB00090F84230202B01D00220704721B11AB198
:101CC0000023036300F0F8BD01207047006810494D
:101CD00088421CD110480F4902788B5C0AB9AA2BA4
:101CE00011D1521CD2B20270202A02D300220270FB
:101CF00009E0032A06D9CB789B1DDBB29A4201D1B9
:101D000001234370114401220448FFF7D1BF7047FB
:101D100000100140F00200200000002078050020A3
:101D200070477047FEE7000070B50646094800247A
:101D30000188458820464D43214600F087F900F090
:101D40004DFA03E0304600F00FFA641CAC42F9D3C0
:101D500070BD0000604400202DE9F041F0212C23EB
:101D60002A252E4C4FF4A0722B2630B1012804D026
:101D7000022815D0032813D022E00027A771218064
:101D80006280238165810028A6814FF0360003D050
:101D900000F0B0F9C02011E000F0ACF900200DE037
:101DA0000127A77122806180238165810228A68195
:101DB0004FF036002ED000F09DF9602000F060F961
:101DC000608900F097F9002000F05AF9002000F037
:101DD00057F92088401EC0F30F2000F051F92078F9
:101DE000401EC0B200F04CF9A08900F083F9002039
:101DF00000F046F9002000F043F96088401EC0F36F
:101E00000F2000F03DF9A078BDE8F041401EC0B2BF
:101E100000F036B900F06EF9A020CFE76044002052
:101E200010B5144600F012F9034821460089BDE8B8
:101E3000104000F0D9B900006044002070B5814C1A
:101E4000012240212046FFF75FF80122510220467F
:101E5000FFF75AF87C4E012280213046FFF754F8F4
:101E60000122150229462046FFF74EF801222021C3
:101E70003046FFF749F8012280212046FFF744F859
:101E8000002229462046FFF73FF80120FEF732FFE7
:101E9000012229462046FFF737F80120FEF72AFFE6
:101EA000002229462046FFF72FF80A20FEF722FFDE
:101EB000012229462046FFF727F87820FEF71AFF6F
:101EC0007820FEF717FF112000F014F97820FEF7B4
:101ED00011FF362000F00EF9002000F0D1F83A2072
:101EE00000F008F9552000F0CBF8B22000F002F91C
:101EF0000C2000F0C5F80C2000F0C2F8002000F023
:101F0000BFF8332000F0BCF8332000F0B9F8B72058
:101F100000F0F0F8462000F0B3F8BB2000F0EAF83B
:101F20001B2000F0ADF8C02000F0E4F82C2000F0F9
:101F3000A7F8C22000F0DEF8012000F0A1F8C320CD
:101F400000F0D8F80F2000F09BF8C42000F0D2F881
:101F5000202000F095F8C62000F0CCF80F2000F00B
:101F60008FF8D02000F0C6F8A42000F089F8A12056
:101F700000F086F8D62000F0BDF8A12000F080F82F
:101F8000E02000F0B7F8F02000F07AF8002000F030
:101F900077F8062000F074F8042000F071F80520AE
:101FA00000F06EF8052000F06BF8312000F068F8C2
:101FB000442000F065F8482000F062F8362000F078
:101FC0005FF8122000F05CF8122000F059F82B2086
:101FD00000F056F8342000F053F8E12000F08AF8C1
:101FE000F02000F04DF80B2000F04AF80F2000F030
:101FF00047F80F2000F044F80D2000F041F82620AB
:1020000000F03EF8312000F03BF8432000F038F8B3
:10201000472000F035F8382000F032F8142000F0A6
:102020002FF8142000F02CF82C2000F029F8322092
:1020300000F026F8212000F05DF8BDE8704029206E
:1020400000F058B8001002400000024070B50B4E7E
:1020500005460C46708900F04DF8280A00F010F88B
:10206000E8B200F00DF8B08900F044F8200A00F062
:1020700007F8E0B2BDE8704000F002B8604400200C
:102080002DE9F047DFF8648005464FF4007900221F
:10209000494644464046FEF737FF0122802120464C
:1020A000FEF732FF124E00244FF6FF77280601D5C7
:1020B000012200E0002280213046FEF725FF07EADA
:1020C0004505002220213046FEF71EFF0122202177
:1020D0003046FEF719FF641CE4B2082CE6D34946EB
:1020E0004046BDE8F0470122FEF70EBF0010024057
:1020F000000002402DE9F047DFF8648005464FF408
:1021000000790022494644464046FEF7FDFE002283
:1021100080212046FEF7F8FE124E00244FF6FF778E
:10212000280601D5012200E0002280213046FEF77A
:10213000EBFE07EA4505002220213046FEF7E4FECB
:10214000012220213046FEF7DFFE641CE4B2082C99
:10215000E6D349464046BDE8F0470122FEF7D4BE2B
:1021600000100240000002402DE9F047DFF86480D3
:1021700005464FF400790022494644464046FEF7A2
:10218000C3FE012280212046FEF7BEFE124E00242F
:102190004FF6FF77280401D5012200E000228021BC
:1021A0003046FEF7B1FE07EA450500222021304601
:1021B000FEF7AAFE012220213046FEF7A5FE641C90
:1021C000E4B2102CE6D349464046BDE8F047012270
:1021D000FEF79ABE0010024000000240014800894C
:1021E000FFF788BF6044002010B50C46FFF782FF60
:1021F0002046BDE81040FFF7B7BF10B5FFF71EFE41
:102200000320FFF7A9FD4FF6FF70FFF78DFD15F0D6
:10221000F5F8BDE810401BF059BA0000154808B5A4
:10222000016841F400110160016801F4001100919E
:10223000016841F4800101600068002200F4800020
:10224000009005210C20FEF7FDFE0C20FEF7ECFEB1
:10225000002205210E20FEF7F5FE0E20FEF7E4FE1B
:10226000002205213A20FEF7EDFEBDE808403A20A5
:10227000FEF7DABE303802402DE9F04186B0142175
:102280006846FEF778F934480024016841F01001EF
:102290000160016801F010010591016841F08001C1
:1022A0000160016801F080010591016841F00101C0
:1022B0000160016801F001010591016841F002012E
:1022C00001600068DFF8948000F0020005900122B0
:1022D0004FF470714046FEF717FE214F0122A021F6
:1022E0003846FEF711FEFE14002231464046FEF746
:1022F0000BFE4FF4E07000900125CDE901546946D2
:1023000040460394FEF708FDA0200090CDE901545B
:10231000694638460394FEF7FFFC4020CDE90004EF
:10232000694638460294FEF7F7FC6802CDE90005DD
:10233000022569464046CDE90245FEF7EDFC01AABB
:102340001120009682E8310069464046FEF7E4FC21
:1023500006B0BDE8F08100003038024000100240B5
:10236000000002400C4810B50A4901604FF4E13109
:102370004160002181600C22C160C0E904128161CA
:10238000C161FFF7ABFB002803D0BDE81040FEF7AA
:10239000E2BA10BD00100140780500200C4810B5CD
:1023A0000A4901604FF4E1314160002181600C2253
:1023B000C160C0E904128161C161FFF78FFB002891
:1023C00003D0BDE81040FEF7C6BA10BD004800407B
:1023D000C0050020FEE7FEE710B5502080F311880D
:1023E000BFF34F8FBFF36F8F24F044FA18B1044945
:1023F0004FF080500860002080F3118810BD00006D
:1024000004ED00E030B593B030216846FEF7B3F834
:1024100014210CA8FEF7AFF81D480025016841F013
:1024200080510160006800F08050119019480168E7
:1024300041F4804101600068022400F48040119062
:1024400001200090000401908001CDE906400820A1
:102450000890A820CDE9090404200B906846FEF7F7
:102460002DFF08B172B6FEE70CA90F2081E83100FC
:102470004FF4A0500F904FF48050109002210CA800
:10248000FEF712FE002801D072B6FEE713B030BD91
:1024900040380240007000400248016841F4700179
:1024A0000160704788ED00E00148FFF72EB9000099
:1024B00028070020F0B50268274B284D284E294FE9
:1024C000294C4FF0804C984209D0604507D0A84273
:1024D00005D0B04203D0B84201D0A04204D122F0CE
:1024E000700E4A6842EA0E0298421BD0604519D02D
:1024F000A84217D0B04215D0B84213D0A04211D094
:102500001A4DA8420ED01A4DA8420BD0194DA84220
:1025100008D0194DA84205D0184DA84202D0184D38
:10252000A84203D122F44075CA682A434D6922F0BB
:1025300080022A438D68C5620D688562984201D089
:10254000A04201D109690163016841F00401016001
:10255000012141610260F0BD000001400004004023
:1025600000080040000C0040000401400040014011
:10257000004401400048014000180040001C004099
:102580000020004010B5806B0021C185FFF764F981
:1025900010BD70B5846B2068406994F84110C0F399
:1025A000C0100025212904D118B1E584204600F08F
:1025B0008EF82068406994F84210C0F380102229F8
:1025C00004D118B1E585204600F05AF8606C40F05F
:1025D000100060642046FFF73FF970BD10B501465A
:1025E000806B096809684FF00002C9052ED4C285C6
:1025F00001680C3151E8003F23F4807341E8003456
:10260000002CF5D10168143151E8003F23F001039B
:1026100041E80034002CF5D10168143151E8003F45
:1026200023F0400341E80034002CF5D1202180F84C
:102630004210016B012909D101680C3151E8003FBA
:1026400023F0100341E80034002CF5D14263016B04
:10265000012902D0FFF73AFB10BD818DFFF7FBF88F
:1026600010BD10B5806B01214163016B012902D0BF
:10267000FFF756FB10BD818D4908FFF7ECF810BD40
:1026800001680C3151E8002F22F4907241E80023D8
:10269000002BF5D10168143151E8002F22F001021E
:1026A00041E80023002BF5D1016B012909D1016814
:1026B0000C3151E8002F22F0100241E80023002BDA
:1026C000F5D1202180F84210002101637047016894
:1026D0000C3151E8002F22F0C00241E80023002B0A
:1026E000F5D1202180F84110704708B590F84210CC
:1026F000222901D0022008BD82684FF480539A42FB
:1027000001D1016921B1816A9A421BD04AB10AE024
:102710000268816A5268C2F308020A80816A891CD1
:1027200008E0026972B10268526802F07F020A7022
:10273000816A491C8162C18D491E0904090CC18549
:1027400003D01BE002685268F1E70168CA6822F012
:102750002002CA600168CA6822F48072CA600168F7
:102760004A6922F001024A61202180F842100021CA
:102770004163026B012A03D0FFF7A8FA002008BDCD
:10278000016301680C3151E8002F22F0100241E88A
:102790000023002BF5D101680A68D20602D50A6829
:1027A00049680091818DFFF756F8E7E770B5044658
:1027B00000680169E26821F4405111430161216917
:1027C000A068E26908436169114308432168CA6847
:1027D00049F20C639A430243CA6020684169A269C6
:1027E00021F440711143416131492068884202D08F
:1027F0003049884202D1FEF721FD01E0FEF70EFDCF
:10280000E2690023192164253226B2F5004F62687F
:1028100028D0A0FB0101930F9200FDF7ADFD01460A
:10282000B0FBF5F06FF01802504301EB800006EBAF
:102830000010B0FBF5F000F0F002B1FBF5F002EB98
:102840000012B1FBF5F06FF01803584301EB800064
:1028500006EB0010B0FBF5F000F00F00216810440B
:10286000886070BDA0FB010192185B41FDF784FDFB
:102870000146B0FBF5F00201B1FBF5F06FF0180373
:10288000584301EB800006EBC000B0FBF5F000F010
:10289000F80002EB4002B1FBF5F0584301EB800079
:1028A00006EBC000B0FBF5F000F00700D6E7000033
:1028B000001001400014014038B581620446828551
:1028C000002013466064222284F84220E56B1F4AF0
:1028D000EA63E56B1E4A2A64E56B1E4AEA64E26B12
:1028E00010650A462168E06B091DFEF7CBF930B18F
:1028F00010206064202084F84200012038BD206848
:10290000016840680090206948B120680C3050E8A8
:10291000001F41F4807140E80012002AF5D12068C0
:10292000143050E8001F41F0010140E80012002A75
:10293000F5D12068143050E8001F41F0400140E814
:102940000012002AF5D1002038BD0000DD25000866
:1029500063260008932500080148FEF77FBF0000AA
:10296000780500200148FEF779BF0000C00500206F
:10297000FEE70907090E002804DB00F1E02080F8DB
:102980000014704700F00F0000F1E02080F8141DE3
:10299000704770B5044600256FF02F0608E02068E8
:1029A000411C2160007805EB850106EB41014518CB
:1029B0002068007800F004F80028F0D1284670BDA7
:1029C0003038092801D801207047002070470000E6
:1029D00010B54421074800F09DFC00221E21064846
:1029E0001DF0BCFA054CA06001F064FD00202070D1
:1029F00010BD00000C5F002069450008E8000020C1
:102A00002DE9F0470E46814617461146304600F044
:102A10001CF94FF0FF3A00287DD00022394630469D
:102A200000F0BFF800284FF0000075D1B6F904801F
:102A3000B6F900305246A8EB0301491C0AFA81F1AD
:102A40000FFA81FAB6F906C0B6F90210ACEB010C28
:102A50000CF1010C02FA8CF2B7F802C012B2ACEB26
:102A6000010C0FFA8CFCBCF1000F0EDD63F30F04B8
:102A700068F30F0501EB0C0061F31F4460F31F4581
:102A8000C9F800400120C9F80450B7F9061073884E
:102A9000CB1AD21A12B2002A13DDB6F906309942C7
:102AA0000FDA338863F30F04B38861F31F4463F3D1
:102AB0000F05114461F31F4509EBC001401C0C6078
:102AC0004D60B7F90220B6F902108A4200DD1146C6
:102AD000B7F90630B6F90620934200DA1A463B8869
:102AE000B6F900C0521AA3EB0C031BB212B2002BB2
:102AF00010DD002A0EDD634463F30F058B1863F3CA
:102B00001F456CF30F0409EBC00361F31F441C6005
:102B10005D60401C01E01AE017E0B7F90430368828
:102B20009F1BAAEB070636B2002E0EDD63F30F04DF
:102B300061F31F44334463F30F05114461F31F45F0
:102B400009EBC001401C0C604D60BDE8F0875046A9
:102B5000FBE770B5B1F90030B2F90040A34200DCE8
:102B600023460380B1F90250B2F90240A54200DDCC
:102B70002C464480B1F90460B2F90450AE4200DA48
:102B800035468580B1F90610B2F90620914200DB86
:102B90001146C1800120AB4201DC8C4200DD0020E7
:102BA00070BDF8B50D460446B0F90000B1F900104B
:102BB0001646884247DBB4F90210B5F9022091426B
:102BC00041DBB4F90410B5F9042091423BDCB4F9BF
:102BD0000610B5F90620914235DC96B3ADF8000039
:102BE0006088ADF8020032466946284600F099F840
:102BF000002827D0A088ADF800006088ADF802005A
:102C000032466946284600F08CF800281AD0208801
:102C1000ADF80000E088ADF802003246694628466B
:102C200000F07FF800280DD0A088ADF80000E08803
:102C3000ADF8020032466946284600F072F80028D6
:102C400000D00120F8BD0020F8BDB0F90020B1F996
:102C500004309A4213DCB0F90420B1F900309A42F2
:102C60000DDBB0F90220B1F906309A4207DCB0F969
:102C70000600B1F90210884201DB012070470020F4
:102C80007047F8B50D460446B0F90400B1F90010DC
:102C90001646884243DBB4F90600B5F902108842B3
:102CA0003DDBB4F90000B5F90410884237DCB4F913
:102CB0000210B5F90620914231DC76B3ADF8000080
:102CC0006088ADF8020032466946284600F029F8CF
:102CD00018BBA088ADF800006088ADF8020032464D
:102CE0006946284600F01DF8B8B92088ADF8000004
:102CF000E088ADF8020032466946284600F011F837
:102D000058B9A088ADF80000E088ADF8020032465E
:102D10006946284600F005F808B10020F8BD0120FA
:102D2000F8BD2DE9FC4114460E46B1F90020B0F97A
:102D3000001005468A423ADBB5F90400824236DCCF
:102D4000B6F90270B5F90220974230DBB5F90630CA
:102D50009F422CDC002C75DD401A9A1A401C521C34
:102D600000B212B200EBD07002EBD27240105210DF
:102D7000904200DB1046844200DD0446ADF80010AE
:102D8000288800222044ADF804006888ADF80200CD
:102D9000688831462044ADF806006846FFF7C1FF59
:102DA00040B1BDF804002044ADF804003FE000202D
:102DB000BDE8FC81E8880022001BADF80200E8882D
:102DC000ADF8060031466846FFF7ABFF28B1BDF805
:102DD00004002044ADF8040011E0A8880022001B84
:102DE000ADF80000A888ADF8040031466846FFF74A
:102DF00098FF50B1BDF80000001BADF80000BDF811
:102E00000200001BADF8020016E06888ADF8020071
:102E1000688800222044ADF8060031466846FFF776
:102E200080FF70B1BDF80000001BADF80000BDF8D8
:102E300006002044ADF80600314668461AF02AFC28
:102E4000B6E7FFE70120B3E710B5B1F90040B2F9EA
:102E500000309C4200DA23460380B1F90240B2F907
:102E600002309C4200DA23464380B1F90440B2F9B3
:102E700004309C4200DD23468380B1F90610B2F98C
:102E80000620914200DC1146C18010BDF8B507460E
:102E90001DF000F80025374C0646009537B1F8685C
:102EA000606038461DF028F9606802E00FF0F2FC1F
:102EB000606000691AF0EAFA6068406908B11AF0C7
:102EC000E5FA6068C0691AF0E1FA6068006A1AF011
:102ED000DDFA6068016991B11AF070FC1FF04EFADA
:102EE0001EF074FF6068B0F85011D9B30068017C1F
:102EF000C9071DD0C0684068D0B1002713E0A0F812
:102F00005051F8BDC11991F8301151B900F5AC70AC
:102F100000F057FA616801EBC7010A6B0260496B68
:102F200041607F1CBFB26068B0F85011B942E9D867
:102F300060684FF48071303015F02AFF60682021FE
:102F400000F5987015F024FF6068A0F850513046E5
:102F50001CF09AFF009060680068436A13B1226811
:102F60000099984715F092FD00F032F8BDE8F8405E
:102F700000F002B8AC00002070B50A4D002400BF7C
:102F8000C4EBC40655F8260008B115F0F3FD05EBB7
:102F900086001C2115F0FCFE641CE4B2042CEFD367
:102FA00070BD0000E85F0020084949680AE04A68EF
:102FB000824202D00A68824203D10A7E42F00102B4
:102FC0000A7649690029F2D170470000800000208C
:102FD000704700000421014800F09CB9005F002008
:102FE0002021014800F096B9185F00202DE9FF412B
:102FF0000446DDE90A671D004FF0000002D1B6F576
:10300000807F2BD0039001900290ADF80C100090BF
:10301000ADF80410ADF80A20ADF80E203B4632465C
:10302000294668461AF096FA3B463246294601A8D8
:103030001AF090FA3B463246294602A81AF08AFA5C
:103040003B463246294603A81AF084FABDF900002F
:10305000BDF90430984209DA054608E02080491E8F
:103060006080A180521EE280BDE8FF811D46BDF94F
:103070000820BDF90C108A4201DA164600E00E461F
:10308000B54203DA984206DB184604E08A4201DAC8
:10309000104600E00846801E2080BDF90030BDF9D2
:1030A0000420934201DD1D4600E01546BDF90800ED
:1030B000BDF90C10884201DD064600E00E46B5421F
:1030C00005DD934201DD194604E0114602E0884225
:1030D00000DD0146891CA180BDF90230BDF9062042
:1030E000934201DA1D4600E01546BDF90A00BDF91C
:1030F0000E10884201DA064600E00E46B54205DAB7
:10310000934201DA194604E0114602E0884200DAEF
:103110000146891E6180BDF90230BDF90620934247
:1031200001DD1D4600E01546BDF90A00BDF90E108F
:10313000884201DD064600E00E46B54205DD9342B9
:1031400001DD194604E0114602E0884200DD014637
:10315000891CE18088E700002DE9F04115460E4604
:103160000746114C1CF096FE80462B4632463946E7
:10317000204613F025FD20B10020A062E06950B187
:1031800010E02C21204615F003FE4FF00040A06215
:103190000020BDE8F08140461CF076FEE06108B9F1
:1031A0000120E0612046F4E73C5F002010B51421C7
:1031B000074800F0AFF813F0C9FC40B105490160C1
:1031C00005494160054981600549C16010BDFEE7C0
:1031D000245F0020216501089D6801086D6A0108CF
:1031E000ED6401087FB50E46040003D10FF052FBD9
:1031F00004002CD00FF0C2FB002828D094F828003F
:10320000400724D4002506B3ADF80050ADF80250B5
:1032100020460FF057FB401EADF8040020460FF08B
:1032200097FB401EADF806006A46314602A8FFF73C
:1032300090FC00280BD02068017C890708D5DDE9C7
:103240000001C4E90C01012029E0A4F850517FBD20
:1032500082690AB102A9904700260AE004EBC60180
:10326000002202A83031FFF79CFC0028EFD1761C29
:10327000B6B2B4F85001B042F0D880B2202804D2DF
:1032800004EBC00002A9303004E0A4F8505104F16E
:10329000300069460CF0E3FFB4F85001401CA4F87C
:1032A000500160680028D2D01CF032FF7FBD70B59D
:1032B000054600F012F804460CE02146284600F0CE
:1032C0001EF806462146284600F0A2F8204615F0D2
:1032D00051FC3446002CF0D170BD002800D040686D
:1032E000704700B503460022FFF7F7FF03E01846DA
:1032F000521C00F004F80100F9D1104600BD00682E
:10330000091D40587047006840587047002800D099
:103310008068704700224260C91C21F0030182606E
:103320000160704770B504460068083015F096FBE0
:10333000050013D00146002220461DF01DFF29463E
:10334000204662681DF012FF616819B12A462046C6
:103350001DF012FF6560A06800B9A560284670BD29
:103360002DE9F0410C4606000AD04CB1FFF7B5FF3D
:10337000A04208D13046FFF7D5FF051E01D01EE060
:103380000020BDE8F0813068083015F067FB051EAD
:10339000F7D030682A460759304639461DF0E6FE18
:1033A0003A46294630461DF0E7FE2A462146304679
:1033B0001DF0E2FE2246294630461DF0D7FE284683
:1033C000DFE770B504460068083015F047FB0500DC
:1033D00013D00146002220461DF0C8FE2946204693
:1033E000A2681DF0C9FEA16819B12A4620461DF049
:1033F000BDFEA560606800B96560284670BD28B153
:10340000416809B9806808B1002070470120704701
:1034100070B504000DD0FFF760FF002288422046FF
:1034200008D1FFF76CFF6060011E01D000221EE092
:10343000A26070BDFFF76AFF8842206808440AD185
:103440000168A16029B12046BDE8704000221DF04E
:103450008DBE626070BD05682046FFF750FF0646CE
:103460000246294620461DF081FE2A463146204666
:10347000BDE870401DF080BE10B50446006882684B
:103480000AB12146904720680068002801D02060DA
:10349000F5E710BD8068002801D0B0F9160070472C
:1034A0008068002801D0807E8009704770B516467C
:1034B00005460C4651EA06001AD0284616F0CEF909
:1034C000A86801233246018A21440182A868418A02
:1034D000314441822146284618F046FD00220B2146
:1034E000284612F0C1FA012803D1284618F095FCAD
:1034F000012070BD77B581B00E46050017D062225D
:1035000017F0BCFF040012D0206880B12846314675
:10351000632217F0B3FF10F0FF0208D023682046A3
:10352000039998470090BDF80000ADF80C0003988F
:1035300004B070BD2DE9F047074692B0408C1A9E4A
:1035400040F00800788490463A8499468A46328949
:10355000384617F093FF0546A7F820903289514668
:10356000384617F08BFF0446788CA54220F00800FF
:10357000788403D12904B1EB044F68D0A7F82080E8
:1035800032895146384617F079FF05468046A7F83C
:103590002090514638460AF0EFFF318900682A46EC
:1035A0001BF0B8FB30890B2823D147F6FF794D4536
:1035B00001D04C451DD1384618F027F900EBD070EA
:1035C0004510384616F0FFFF00EBD0704010C8459C
:1035D00006D1691C431C994200DA00E0194688466E
:1035E0004C4506D1691C421C914201DA6C1C00E07A
:1035F00014461948FFF796FE05002BD02F60C5E949
:1036000003843089A8806846C5F808A00CF09AF8B1
:103610001248FF21CDE90050114802901148039053
:1036200000200890CDE9090130880B9070889DF842
:10363000421040420C90F0680790002060F30001B7
:103640008DF842103069069068460CF0EFF812B021
:10365000BDE8F087FEE70000305F0020115C020843
:10366000FD5D0208595D020814210148FFF752BEB2
:10367000305F00202DE9F84F002590468946064628
:103680002C460427E5E000BFF16807EBC4000858AA
:1036900082017AD480B230EA090211D05FF00002D0
:1036A00030EA08000ED0002082426ED051F834A0DB
:1036B0006A46102150461BF08FF8002871D103E0B4
:1036C0000122EDE70120EFE76A46112150461BF089
:1036D00083F8002865D16A46122150461BF07CF819
:1036E00000285ED16A46132150461BF075F8002869
:1036F00057D16A46152150461BF06EF8002850D16C
:103700006A46142150461BF067F8E8BB6A460A2156
:1037100050461BF061F8B8BB6A466B2150461BF05F
:103720005BF888BB6A466C2150461BF055F858BBC5
:103730006A46012150461BF04FF828BB6A46042117
:1037400050461BF049F8F8B96A46022150461BF072
:1037500043F8C8B96A46032150461BF03DF898B9B2
:103760006A46052150461BF037F868B96A460621BB
:1037700050461BF031F838B96A46322150461BF0EA
:103780002BF808B96A4601E00BE061E06E21504673
:103790001BF022F828B96A466D2150461BF01CF830
:1037A00010B10320BDE8F88F6A46692150461BF02E
:1037B00013F8E8BB6A466A2150461BF00DF8B8BB07
:1037C0006A466E2150461BF007F888BB6A466D2199
:1037D00050461BF001F858BB6A46372150461AF094
:1037E000FBFF28BB6A46382150461AF0F5FFF8B9AE
:1037F0006A46352150461AF0EFFFC8B96A464021A3
:1038000050461AF0E9FF98B96A46452150461AF029
:10381000E3FF68B96A46412150461AF0DDFF38B926
:103820006A46422150461AF0D7FF08B96A4600E0BE
:103830000AE0432150461AF0CFFF28B96A464921D1
:1038400050461AF0C9FF08B1022501E005B901256B
:10385000641C708CC0F30510A0423FF615AF2846DB
:10386000A0E700000148406870470000AC0000205D
:103870007047C0F30410072800D9072070470000E4
:10388000A0F57F41FF3905D0002804D0712803D26C
:1038900008490AE01F2070470749713880B209685B
:1038A00029B1064A5268904201D2085C7047002054
:1038B0007047000038A602081401002028010020EB
:1038C00010B518210348FFF725FD034901200870B2
:1038D00010BD0000DC5E0020300100202DE9F04129
:1038E00090460C46050015D0FCF7F4FD0A4F06463D
:1038F0002146BA68284690470446BA6828194146C6
:1039000090470146701A03E06218AA5C2A55641CAD
:10391000A042F9D2BDE8F081440100202DE9F04138
:10392000094D90460E466A681C4607461946904760
:10393000306020B120686A68384400219047C8F898
:103940000000BDE8F0810000440100202DE9F04FA7
:1039500087B08A46DDE910581F4693460446002189
:1039600005B129805CB12078002809D0BAF1000F98
:1039700005D0002618F0060F15D0002004E0002026
:1039800007B0BDE8F08F401C215C0A2904D00D2946
:1039900002D00029F7D100E0401C002DF0D04FF0FC
:1039A000FF312980ECE75FEA887001D541F6FF77A7
:1039B000894608468DF81410049127E00498CDF844
:1039C000189068B34FF0000C05AA06ABCDF80CC0F8
:1039D000CDF80080CDE9013220443B465A4651469D
:1039E0001CF0D8FC06997A1A314417B20EB288B18D
:1039F00004990144049120780A280BD00D2809D09D
:103A0000605C0A280FD00D280DD00846205C08B154
:103A1000002FD3DC049848B105B12E800498AFE79D
:103A20004FF0010CD0E7481C0490F3E7064A04A9C4
:103A3000204652689047002DF0D0014600225046A3
:103A400012F026F906B2E8E7440100202DE9F04122
:103A50001746884606001ED0002F1CD0FCF73AFD02
:103A600004463846FCF736FD050014D00B4A2C44BA
:103A70004146926830469047411903E0621BB25CB0
:103A80003255641EA142F9D930442A463946BDE870
:103A9000F04115F03FB9BDE8F0810000440100207D
:103AA00000230278232902D0012A0DD00FE02AB189
:103AB0000021012A04D0022A04D008E0012101E0FB
:103AC000017004E0017001E0202902D001231846B2
:103AD00070470221F6E72DE9F0410E468046024686
:103AE0000021334608461CF093FE04460027401C84
:103AF00014F0B4FF050008D02F5533464246611C30
:103B00001CF086FE2846BDE8F081FEE72DE9F0476F
:103B10001E4614460D468246DDF8209015E000BF93
:103B20004FEA540808FB0657394650464A46904724
:103B3000002808DD44F30000C0EB540407EB060541
:103B4000A4F1010401E005DA4446002CE8D1204646
:103B5000BDE8F0873846FBE72DE9FC5F9B460CABE0
:103B60008A468146DDE9116093E81210DDE90F57BE
:103B70005FEA80784FF030031AD45EB15FEAC07814
:103B800008D000F00C0858EA0C0803D0761E01E0BB
:103B90000B55641CBC4204D2202CF9D301E00B5518
:103BA000641C5FEAC07803D0B44201D2202CF6D363
:103BB0005FEAC06825D55FEA40580AD44CB1BC42E0
:103BC00001D0B44205D1641E03D0102D03D1641E70
:103BD00004E0102D02D0022D0AD00EE0850603D499
:103BE000202C1ED2782506E0202C1AD2582502E07F
:103BF000202C16D262250D55641C202C11D20B5599
:103C0000641C202C0DD2BCF1000F01D02D2306E046
:103C1000430701D52B2302E0030702D520230B55D0
:103C2000641CCDE900BAC846154681468B46AA46B3
:103C3000800714D1274607E02A46DDE900316D1CD4
:103C40002020C446E0477F1CB742F5D307E02A4650
:103C50006D1C641EDDE900311BF80400C047002C18
:103C6000F5D15FEA897006D409E02A46DDE9003122
:103C70006D1C2020C047A5EB0A00B042F5D32846B2
:103C8000BDE8FC9F2DE9F04F8FB099468B46DDE9EA
:103C90001818DDE91C63DDE91A47924686460022C2
:103CA00009B923F01003580507AD00D5C9B1B1FB20
:103CB000F4F004FB1010C0B20A2801D2303009E041
:103CC0005FEA836C02D54FF0410C01E04FF0610CCC
:103CD00060440A38B1FBF4F1A854521C09B1202AFF
:103CE000E5D3CDF80880CDE90563CDE90052CDE9F3
:103CF00003474B46524659467046FFF72DFF0FB01B
:103D0000BDE8F08F2DE9FF4F8FB01CACDDE92395A6
:103D100094E8030820AC94E8C004002450EA0102AF
:103D200001D125F010056A050DF11C0802D550EAF5
:103D3000010217D032463B46FCF71EFBD2B20A2ADC
:103D400001D2303206E0AB0601D5412300E0612309
:103D50001A440A3A08F80420641C50EA010201D00F
:103D6000202CE7D3CDE90084CDF808B0CDE9059546
:103D7000CDE9036A0FAF97E80F00FFF7EDFE13B030
:103D8000BDE8F08F9A4200D2885470477047000017
:103D90002DE9FF4F89B005460A9800249246002875
:103DA00000D1FE4D8FE1252804D02246641C5346E5
:103DB0000A990BE2491C4FF0000808460C91017863
:103DC0002B2919D004DC202919D0232904D119E08A
:103DD0002D290ED0302909D00026C8B2FEF7F0FDFB
:103DE000B0B10CA8FEF7D5FD06461FE048F0010172
:103DF0000AE048F0020107E048F0040104E048F05E
:103E0000080101E048F01001401C88460C90D6E7FC
:103E10000C9908782A2809D1169840C81690002EC7
:103E200002DA48F002087642491C0C910C984FF0D7
:103E3000000B01782E2919D1401C0C9048F48068A1
:103E40000078FEF7BDFD20B10CA8FEF7A2FD834669
:103E50000CE00C9A10782A2808D1169802C81690FF
:103E6000002900DC0021521C8B460C920C98017832
:103E70006C290AD004DC68290FD06A2919D128E0FE
:103E8000742929D07A2914D126E0401C0C9001789D
:103E900048F480786C291CD00BE0401C0C90017811
:103EA00048F08008682904D148F04001401C884649
:103EB0000C9002460078692822D015DC62281FD0B9
:103EC0000DDC252871D050281AD058287FF46DAF0A
:103ED00016E048F40071E9E748F48071E6E76328EA
:103EE00078D06428F2D10BE0732874D004DC6F28FA
:103EF00006D07028EAD103E0752801D07828E5D1F2
:103F000078280DD058280BD070280BD0502809D015
:103F10006F2816D0622816D00A2128F0100016E06B
:103F2000102107E05078102148F48878562804D1F1
:103F3000521C0C921078582807D01078502804D0C2
:103F400006E0082109E0022107E048F02000804651
:103F50001078692803D0642801D028F00C085FEAA3
:103F6000485001D528F00108107869281ED064282F
:103F70001CD0562864D05FEA885072D5169804ABDE
:103F8000C01D002283E806080292CDE9076820F0F0
:103F900007005346F0E80212CDE9001216902246BF
:103FA00028460A99FFF7AEFE89E00AE15FEA8850E9
:103FB00024D5169804AFC01D20F00703F3E80202D1
:103FC0001693002387E80A08CDE90768002A03DA78
:103FD000012102E080E0A6E00021002302911946C1
:103FE0001B1A914101DA114603E00021404261EBC6
:103FF000020153462246CDE90001D1E75FEAC850ED
:1040000004D5169804C80FE0524215E05FEA4860F4
:1040100003D5169810F8042B06E05FEA0860F0D587
:10402000169830F8042B12B21690CDE9021BCDE998
:104030000468D00F002AE7DDCDE9002053461EE0DA
:104040001698AAEB040202C816904868006800900F
:104050000A980B6801192846FFF79AFE04442FE0DE
:10406000FFE75FEAC8500CD5CDE9021BCDE9046833
:1040700016980021534604C8CDE900211690224627
:1040800019E05FEA486003D5169810F8042B08E0A1
:104090005FEA0860169803D530F8042B92B200E06E
:1040A00004C816900020CDE90020CDE9021BCDE91F
:1040B00004685346224628460A99FFF7E3FD044662
:1040C0000C98401C0C900C99087800287FF46BAE7B
:1040D00054457DD222467DE001275FEA887006D5EF
:1040E00009E02246641C534620200A99A847384616
:1040F0007F1CB042F5D316992246641C11F8040BBC
:10410000169153460A99A8475FEA887006D4D7E704
:104110002246641C534620200A99A84738467F1C33
:10412000B042F5D3CCE7169850F8049B16904B4656
:10413000BBF1000001D0014601E04FF0FF314846DD
:1041400000E0401C02780AB1491EFAD2C71A5FEAA1
:10415000485003D558465F4500D307465FEA88704C
:1041600006D512E02246641C534620200A99A8472F
:1041700038467F1CB042F5D307E000BF224609F164
:104180000109641C53460A99A84799F8000040B1F8
:104190005FEA4851F2D5BBF1010B01E08D3D00080B
:1041A000ECD25FEA887006D48AE72246641C534644
:1041B00020200A99A84738467F1CB042F5D37FE7F4
:1041C00006E02246641C534625200A99A84777E753
:1041D000AAF10102534600200A99A8470DB02046D3
:1041E000BDE8F08F10B502004FF000000CD04B1E60
:1041F000194200D0FEE70A44521E9A43B2F5004F1E
:1042000002D20C2A01D9104610BD0C2010BD084462
:104210004A1E401E9043114200D0FEE77047000046
:104220002DE9F0410F4601210025044641862E4626
:104230000BE01B49FCF7C6F910B16D1CADB202E0F2
:10424000608E401C6086761CB6B257F8260010B10E
:1042500001780029EDD1208EA8421ED0A06A002648
:1042600010B114F087FCA662E06A10B114F082FC71
:10427000E662E80014F0F2FBA06238B1680014F0C6
:10428000EDFBE06218B1A16A11B102E0FEE7FEE7C2
:104290000025690014F07CFD2586BDE8F081000052
:1042A000E00C01082DE9F84F8146407A0F4600F0F6
:1042B0000700022819D010468046974200DD3A4692
:1042C000164603202A4C2B4A00EB460020F003053B
:1042D000A06811681035411A636805EB010C9C4514
:1042E00005D2416821F0004124E00846E4E79D4200
:1042F00019D892464FF0FF3B48196168884210D99F
:10430000002269461C48CDF800B00AF077FE002272
:1043100069461A480AF072FEA168DAF80000091A24
:10432000EAE7A068DDE7284614F098FBC0B14168D1
:1043300041F0004188EA6702416089EA02010160B8
:10434000416801F04041491C31F080414160868163
:10435000A0F80E8005D500F110018160BDE8F88F4E
:10436000FEE7A16801F1100229448260A160F5E72F
:10437000B400002010010020CDD100085DF000083D
:1043800070B586B000224A4C8DF808208DF80C20BC
:104390008DF81020E2888A4201D0FF22A270E180CD
:1043A00090F83C20142302F003024FF4B475012A64
:1043B00024D0022A5ED0A578AA4211D010F8265F38
:1043C00005EB051505EB4505B5FBF3F525704078C4
:1043D00000EB001000EB4000B0FBF3F06070A27047
:1043E00004AA03A8CDE9000201EB41004FF6FF71DA
:1043F00001EA400002AB627821781BE0A678B24265
:1044000010D0868C06EB46067602B6FBF5F5A58045
:1044100090F8270000EB001000EB4000B0FBF3F039
:104420006070A27004AA03A8CDE90002C9B202AB71
:1044300062783AE008F0DCFB9DF810109DF80C0063
:10444000CB08BDF800109DF8082063F30401ADF817
:1044500000108108BDF8000061F34A10D10880B255
:1044600061F3CF20ADF8000080B20090BDF80000ED
:1044700006B070BDA678B24210D0868C06EB460618
:104480007602B6FBF5F5A58090F8260000EB00104B
:1044900000EB4000B0FBF3F02070A27004AA03A868
:1044A000CDE90002CAB2217802ABA088C2E70000C1
:1044B0001802002010B5084C012020700748FEF7B4
:1044C0000CFF0028A06803D0BDE810401BF020BE00
:1044D000BDE810401BF010BEE80000200C5F00207B
:1044E00010B5044690F84200A16B820709D4B4F8D5
:1044F00040204AB1A2F57F43FF3B1BD0521EA4F8D7
:104500004020B4F84020AAB909B1820712D521464B
:104510001448FEF77DFFFFF7CDFFE16809B12046A3
:104520008847216909B1204688472046BDE81040E8
:1045300014F020BBE26B52422263002911D08207A3
:1045400002D4626B524222634210521C62F3410059
:1045500084F84200A26A206A2262A062E06AE162F4
:10456000A06310BD0C5F002070B5304D68681BF073
:104570008BFC0646687880F00100687047E00020F8
:10458000287094F842006978C0F380028A4242D0D1
:1045900061F3820084F84200216B8A19030719D461
:1045A000002917DC002A15DBC00709D1616939B180
:1045B00020468847216A01442162A16A0844A0621A
:1045C000A16809B12046884794F8420040F00800ED
:1045D00084F84200206B8019206316D4E16A884277
:1045E00000DD2163E169204688470146606A884210
:1045F00004D0616262680AB120689047D4E90B0177
:10460000814202DB2046FFF76BFF287818B108488B
:10461000FEF763FE03E021460548FEF770FE040046
:10462000ADD11BF037FC686070BD0000E8000020D1
:104630000C5F002070B5044640680D4608B1FFF7D6
:10464000F9FF2268002A04D029462046BDE87040C0
:10465000104770BD89B20BF067BD89B20BF0A0BDE9
:104660002DE9FF4F99B09846DDE926B12D98164601
:104670008A464FF00009042811D0052811D00628D9
:1046800012D0142870D101270225002418FB06F04F
:104690000E901A98401E0D90701E069051E1002752
:1046A000F2E701270325F0E701270225FFF7DAF8F3
:1046B0000068D0F83890E8E7289860430BEB202298
:1046C000299860430AEB202110124FEA212E7DD455
:1046D0001A9B98427ADABEF1000F77DBB64575DA9D
:1046E000D2B2CBB2802A05DAC2F17F024FF0FF319D
:1046F000520003E001215200A2F580720992802B42
:1047000005DAC3F17F034FF0FF325B0003E00122C3
:104710005B00A3F580730A930EFB080C199B0CFB3E
:10472000053307934318119372D4DDF834C0634501
:104730006EDC1EEB02036BD4DDF818C0634567DC4A
:10474000DDF81CC011FB05C1CDE915C112FB08F154
:1047500001FB05C10C91D7B32D99052905D014296A
:104760000BD0062955D066E0EFE0159880780790C9
:104770000C9881781698807810E0199A0E990EFBA3
:1047800008FC02EB41010A180EFB08111CF802009C
:104790000790119803FB08F3085C995C079A914213
:1047A0000AD00A9A11FB02F20A99C1F5807307999F
:1047B00011FB0321C1F30721079A90420DD0099AFA
:1047C00010FB02F20998C0F5807301E02FE035E09C
:1047D000079810FB0320C0F3072008442C994008D9
:1047E000085527D015980178407801EB0020ADF8E6
:1047F0000C000C980178407801EB0020ADF8100017
:1048000016980178407801EB0020ADF8080023E00D
:104810004CE0159801881FFA89F0814207D00C9965
:104820000988814203D016990988814203D12C99C5
:104830000020085583E0FF210846CEE71598008840
:10484000ADF80C0016980088ADF808000888ADF89F
:1048500010002C98FF210155BDF80C00BDF8101078
:10486000884209D1BDF80810884205D12B98BDF8BF
:104870000C1000EB440017E00A98C2B2DDE9031007
:104880000DF0CEFB04900998C2B2DDE902010DF0F3
:10489000C7FB7F22029004990DF0C2FB00902B9879
:1048A000BDF8001000EB4400018048E0079B93F83E
:1048B00000C05B780CEB0323DDF8ACC09BB22CF896
:1048C0001430DDF8B4C0BCF1050F06D0BCF1060F02
:1048D00006D0BCF1140F09D10AE0079B9B780FE0CA
:1048E0001FFA89FC634501D1002309E0FF2307E09B
:1048F000199B0EFB083C0E9B00EB43031CF8033096
:1049000008B9002905DBDDF834C0604503D1002972
:1049100001DD09980AE0BEF1000F01D1002A04DB95
:1049200006998E4508D1002A06DD0A98C0F1FF00DD
:1049300010FB03F0010A00E000212C980155641CD3
:1049400024B22A988442FFF6B7AE1DB0BDE8F08FBE
:1049500010B5818F92B00446A9B168460AF0F2FE04
:104960000B480121CDE90040A08F0B90002008905A
:10497000CDE90901074807900748039068460AF007
:1049800055FF12B010BD12B0BDE810401CF058BF6A
:10499000B918020803F80008BB18020810B504464D
:1049A000406882080AD0496821F00301091D0844C3
:1049B0006060204600F042F8204610BDFEE74068E7
:1049C000103120F00300884201D3012070470020FD
:1049D00070472DE9FC47054648680C4620F0030067
:1049E00001AA69461CF06AFADDE9007005EBC711FF
:1049F00001EB80098046D9F8380060B164B1C4E9A0
:104A0000020504F10806C46030460421FFF7FFFBED
:104A1000864202D0FEE7FEE7FEE7C9F838400120F3
:104A2000296900FA07F21143296105EB870100FAB1
:104A300008F04A6902434A61BDE8FC8710B50446A4
:104A400000F087F8046010BD2DE9FC4706464FF0E2
:104A500000000D0000900746019042D00C46E94648
:104A60000DF10408802907D3084621F0C9F8411F39
:104A700001208840401E04444246494620461CF01E
:104A80001DFA009C092C2CDA06EB8400019A40697F
:104A90004FF0FF3101FA02F210400CD1641C306972
:104AA000A14008401DD021F0A3F80446009006EB79
:104AB0008000406978B121F09BF8034606EBC411F1
:104AC000019001EB8000876B5FB1786820F00300F4
:104AD000A84201D2FEE7FEE739463046009A1DF0B3
:104AE0009BFD3846BDE8FC8710B50446FFF7A6FFDE
:104AF000416841F002014160606840F0010060607F
:104B000010BD10B5044600F024F8416821F0020100
:104B10004160606820F00100606010BD70B506461D
:104B20000D46084600F015F8040010D02079C007A3
:104B30000BD0686880080BD02146304600F03CF866
:104B400021462846FFF72AFF0546284670BDFEE7A6
:104B5000FEE7426800F1080122F00300001F08444C
:104B6000910800D1FEE7704770B506460C004FF083
:104B700000001ED0F2B120791546C0071BD01146A7
:104B80002046FFF71CFF78B12946204600F025F8A3
:104B900005462046FFF752FF6868294640F00200AC
:104BA00068603046FFF715FF2046FFF7AAFF04F1C3
:104BB000080070BDFEE7FEE77CB5054648680C4678
:104BC00020F0030001AA69461CF078F9DDE9002312
:104BD000214628461DF020FD7CBD2DE9F0410D4603
:104BE000044600F10801281F0E18606806F1080746
:104BF00020F00300401BA0F1040838460421FFF711
:104C000006FB874200D0FEE7606820F0030108EB56
:104C10000500001D814200D0FEE7307900F003005E
:104C200040EA0800706020F003000C2800D2FEE784
:104C3000207900F00300284360603046FFF754FFFE
:104C40003046BDE8F08138B5044612F00BFB05464E
:104C500012F03DFB0028204605D0218FE18617F099
:104C6000DCF8012038BD10F0BDFC002820461ED025
:104C700010F084FB218FE08E81420CD02087E08EE3
:104C800000906A461C21204610F0EEFE0128E9D172
:104C9000204617F0C2F8284612F025FB0428E0D180
:104CA000204615F08BFC002111F090FBD9E710F0A5
:104CB000F5FCD6E770B510F0D3FE054615F0C4FC40
:104CC000044628460CF0D4F801462046BDE8704062
:104CD00000221AF007BC00002DE9F04F0D4687B006
:104CE0000446002115F09EFB60B32946204600F0E3
:104CF00061FA2946204600F06FF80021204616F0A0
:104D0000C7FA05900021204616F064FB04900021AC
:104D1000204616F08EF9012800D0002080460021A0
:104D2000204616F0A7FC07460021204616F0F0F9B1
:104D300042F2D17906464F450BD1608C000508D46C
:104D4000012707E007B02846BDE8F04F1C2114F00A
:104D50001FB80027204615F0E3FBDFF878A0834654
:104D600020460021BAF8042016F088FBD5F810C0C0
:104D7000AB682968CDF800C0CDF80C80CDE90131D1
:104D8000C2B239465846059B09F068FC28834E4557
:104D900004D1608C400501D4012600E000262046A5
:104DA00015F0A4FB074620460021BAF8082016F0AB
:104DB00065FBC2B2686900246B68E9688DE81B0076
:104DC00031463846049B09F049FC688307B0BDE8CA
:104DD000F08F00008C0100202DE9F34F81B00C46CC
:104DE000019808F0BDFE0646019815F099FB824631
:104DF000304600F0E3FF2061400013F05DFE2060CC
:104E00002069400013F058FE002541F69A79A06011
:104E10003AE036F91510DFF82081494533D10027F3
:104E2000DFF818B11FE03946019815F0FBFA594632
:104E3000009016F03AFDA8B9009808F0A3FE0128EA
:104E400010D1009808F094FEA8420BD1009816F0FB
:104E5000DCFC4146404501DA084602E0009816F0C5
:104E6000D4FC80467F1C019815F0EEFAB842DAD8DF
:104E7000B8F1000F03DBA16821F8158003E0A168F9
:104E8000002021F815006D1C2069A842C1D800251A
:104E90002F46284641F69B784B4615E036F9101010
:104EA000414504DB0D44A5F5F8559B3D0BE09942C7
:104EB00004D1A16831F81010394403E0A26822F847
:104EC000101039440FB2401C21698142E6D80021FC
:104ED000019816F0DDF92169C1F1010200FB02A081
:104EE000C01B00B2002800DA002000224FF0FF3380
:104EF0001146C44611E000BF36F9117067450BDB5F
:104F0000A7F5F8579B3F3AB210FB02F3B3FBF5F35A
:104F1000A76827F811300B46491C27698F42EBD848
:104F2000002B07DBA91A4143B1FBF5F1401AA16838
:104F300021F81300BDE8FE8F01E0FFFF010006002D
:104F40002DE9F14F00221146009817F0F7FE0021DD
:104F5000009816F09BF804460021009816F040FADD
:104F600020440FFA80F90021009816F03DF9204402
:104F70000FFA80F8009815F0FDFF00EB090101EB36
:104F80000800DFF898A006B25446009815F05CFAC5
:104F9000074600252AE0009821498068006850F8FB
:104FA0002500834616F081FCF8B9584616F08EFFAE
:104FB00040BB0021584616F001F818B3012821D053
:104FC00002281FD003281DD00021584616F064FB8C
:104FD00058B9BBF81A10BBF81600081A401C00B2EA
:104FE0004844A04200DB044624B26D1CBD42D2D32B
:104FF000544504D004EB080000B2B04200DC304657
:10500000BDE8F88F0098BBF91A10B0F91600081A1D
:10501000411CA142E8DB0C46E6E7000001E0FFFF8F
:10502000010004002DE9F84F00228046114617F0D8
:105030006FFE0021404616F029F804460021404644
:1050400016F07AF920440FFA80FA0021404616F053
:105050002BF920440FFA80F9404615F099FF00EB38
:10506000090101EB0A00DFF844B105B25C46404695
:1050700015F0EAF907460021404615F0BCFF01286B
:105080004FF0000644D078E0D8F80800484900689E
:1050900050F82600009016F008FCC0BB009816F0EF
:1050A00015FF50B10098B8F91810B0F91400091A9A
:1050B000481CA0422ADB4C1C28E00021009815F077
:1050C0007DFF58B1032809D0062807D0082805D04D
:1050D0000021009816F0DAFA58B118E00098B8F9F3
:1050E0001810B0F91400081A411CA1420EDB0C463E
:1050F0000CE00098143000900BF02BF95044A042C3
:1051000004DB00980BF025F900EB0A0424B2761CAE
:10511000BE42B9D35C453BD004EB090033E000BF8D
:10512000D8F808002249006850F82600009016F0D0
:10513000BCFB08BB009816F0C9FE60BB00210098BC
:1051400015F03CFF38B3012825D0042823D00728C8
:1051500021D00021009816F09FFA68B90098143009
:1051600000900BF0F6F84844A04204DB00980BF0E6
:10517000F0F800EB090424B2761CBE42D0D35C45A3
:1051800006D004EB0A0000B2584501D0A84200DC6A
:105190002846BDE8F88F0098B0F91810B8F9140047
:1051A000091A481CA042E6DB4C1CE4E701E0FFFFC3
:1051B000010004002DE9F84F0C46834609F0D4F8AD
:1051C000064600F0FBFD6061400013F075FC606076
:1051D0006069400013F070FC002541F69A79E060A8
:1051E0003AE036F91500DFF82881484533D1002729
:1051F000DFF820A11FE03946584615F013F9514653
:10520000009016F052FBA8B9009809F039F901286E
:1052100010D1009809F02AF9A8420BD1009815F096
:10522000D2F94146404501DA084602E0009815F0FF
:10523000CAF980467F1C584615F006F9B842DAD8FC
:10524000B8F1000F03DBE16821F8158003E0E168A5
:10525000002021F815006D1C6069A842C1D8002506
:105260002F46284641F69B784B4615E036F910103C
:10527000414504DB0D44A5F5F8559B3D0BE09942F3
:1052800004D1E16831F81010394403E0E26822F8F3
:10529000101039440FB2401C61698142E6D80021E8
:1052A000584616F097F88146584615F01FF9014602
:1052B0006069C0F1010209FB0210C01B00B20028A6
:1052C00000DA002000224FF0FF331146C44610E000
:1052D00036F9117067450BDBA7F5F8579B3F3AB2DB
:1052E00010FB02F3B3FBF5F3E76827F811300B4628
:1052F000491C67698F42EBD8002B07DBA91A414391
:10530000B1FBF5F1401AE16821F81300BDE8F88F10
:1053100001E0FFFF010006001CB50B88048923444F
:10532000ADF800304B8844892344ADF802308B88B7
:1053300004892344ADF80430C98843891944ADF881
:1053400006104369694698471CBD00002DE9FF4FD0
:1053500089B0C8781A9CC0070D46002801D0F848CB
:1053600000E0F848069001D0F74800E0F7480490C4
:1053700001D1F54800E0F5484FF010034FF00C0E56
:105380004FF0080BCDF814006188A2884FF0000A96
:10539000A1EB0201504609B25246D4F810C00FE00A
:1053A00002EB8207E66803EB870816F808805FEADD
:1053B000C87809D00BEB8707F65B891B09B2521C32
:1053C0009445EDD8002254E00EEB8707F65B30449D
:1053D00000B2F4E7E66802EB820703EB870CB14604
:1053E000CDF820C016F80C60F60741D1002872D025
:1053F00091FBF0F80EEB8706079639F8066006FB7E
:1054000008F60FFA86FCCDF800C04FF0060C0CEB46
:10541000870C042639F90C8006EB8706DDF800C0FE
:1054200039F90660E04500DCC446664504DC009EB0
:10543000C446B04500DC6646DDF800C0019666450E
:1054400006D0DDF820C04FF00108C24649F80C80B4
:10545000D4F80C80019E0BEB870728F80760D4F87E
:105460000CC0079F3CF80770C01B891B00B209B233
:10547000521C26699642ADD8BAF1000F84D10021A2
:10548000099815F0D0FD012826D000270020ADF89E
:105490000800ADF80C0003A902A8CDE9000120899D
:1054A000B4F9022003B2287818991BF002FFE878BB
:1054B000384207D0099815F033F8BDF808100844B1
:1054C000ADF808000B99099814F0ACFF06464FF4AC
:1054D000FA682AE1FFE7FEE70127D7E79C49304653
:1054E00016F0E3F900286FD10021304615F0FAFDDF
:1054F000F0B34FF00009484621690FE0E26800EB85
:10550000800352F82320B24207D1E16800EB800209
:105510000BEB820031F9009002E0401C8142EDD893
:10552000E878C007708C04D020F4806040F40060FC
:1055300003E020F4006040F48060708406F1140001
:10554000049982468847484528D0304616F065FCC5
:10555000B08AADF80000F08AADF80200308BADF8EB
:105560000400708BADF8060049465046069A00E0EC
:1055700010E090476A462921304610F075FA30460F
:1055800015F062F83246222110F06EFA304616F01D
:1055900044FC03E0708C20F4406070840020009094
:1055A0006878012811D0022817D1059906F1140056
:1055B0008847B4F90010491C21F00101081A00EBDA
:1055C000D07040F34F0007E0A7E0059906F1140002
:1055D00088472188081A00B20090E878384208D03D
:1055E000049906F114008847BDF80810081AADF8B0
:1055F0000800304600216B2215F040FF0FFA80F9B9
:10560000304600216C2215F039FF0FFA80FA30463F
:1056100016F0FBF80190304614F0D5FF0146C9F3AF
:10562000413001280FD129F4C04040450BDCB0F5D2
:105630007A7F01DDC0F57A70019A5043642290FBB5
:10564000F2F00FFA80F9CAF3413001280ED12AF4A2
:10565000C04040450ADCB0F57A7F01DDC0F57A70C4
:105660004843642190FBF1F00FFA80FAB18A169852
:10567000F28A411A01EB0900179900B28A1A02EB6B
:105680000A01EA7809B2D207002A02D0BDF908203F
:1056900000E0009A10440FFA80FA01D0009801E06F
:1056A000BDF9080008440FFA80F95AEA09011BD035
:1056B000304616F0B2FBB18A01EB0A00B082318BA2
:1056C00001EB0A003083F18A01EB0900F082718B53
:1056D00001EB09007083304616F09FFB00234A4619
:1056E0005146304616F040FCE87838420CD1049917
:1056F00006F11400884719990844BDF80C100844B5
:10570000BDF80810084406E0BDF80C1019980844CC
:10571000BDF80810081AADF80800E8780BAAC0F325
:105720008001099808F0E6FC0646002E04D0DDE969
:105730000B0188427FF4D2AE0DB0BDE8F08F0000BF
:10574000DB030108D1030108830301082B030108CF
:10575000010006002DE9F04F91B00E0005463FD044
:105760002E83286808B113F005FA06EB46000621DF
:1057700001EB400013F072F9286040B3022101EB05
:1057800046010144E960042101EB86010144C5E9B9
:10579000010101210024012E1AD0F000083013F07D
:1057A0008BF9814600EB860000F10408B00000B2DE
:1057B000A346ADF81000C0F101028010ADF812B0A0
:1057C0000FFA82FA5C46CDF828B00690ABE0FEE70F
:1057D000B4220270E8680480E8684180A868048008
:1057E00011B0BDE8F08F0027BDF81220BAF1000F0C
:1057F00007DC032101EB42010AEB01000FFA80FAFA
:105800000CE0BDF810100523521A03EB420202EB24
:105810000A00491E0FFA80FAADF81010BDF8120008
:10582000401CADF8120004A800F0E9F868B1BDF919
:10583000100006A9821041F827200AA900F00300F1
:1058400041F827007F1C042FCEDB042F71D109996A
:105850000698884212D129F8140028F814B0DDE91E
:105860000A010144DDE90C20104408446968085528
:10587000696800010855641C24B252E00799884207
:1058800019D029F8140028F814B06A680A9810553D
:105890006A6800011055641C069A20B2521E29F84D
:1058A000102028F810B0DDE90B120A440D99091DEB
:1058B00011446A682FE0089929F81400884228F8F2
:1058C00014B0DDE90A025946104412D06A68105536
:1058D0006A6800011055641C069A20B2521E29F80D
:1058E000102028F81010DDE90C12114408316A6804
:1058F00011E00C9A10446A6810556A68000110554E
:10590000641C069A20B2521E29F8102028F81010A4
:105910000D996A680C3111546A6809011154401CD0
:1059200004B20BF1010B04A800F069F800287FF421
:105930005AAF40F2D32016FB00F109EB4402881263
:1059400032F9022C824205D108EB440232F9022CD2
:1059500082421AD0A1EB8021B1F5007F03DC4943DC
:1059600041F3CF3106E0C1F58061494341F3CF31C6
:10597000C1F10F0129F8140028F8140068680155D6
:10598000686809010155641C24B2A01E0EE000BF26
:1059900038F8102029F8142039F8102028F814209D
:1059A00069680A5C0A55641C24B2401E0028EFDABC
:1059B000EA680021084611801BE0EA6822F811001D
:1059C000AB6839F8102023F811200AE0AE6839F9E5
:1059D000102036F81130934200DA1A4626F81120CA
:1059E000401C38F910208A4201D1A042EEDB491C4C
:1059F00009B2A042E1DB484613F0AAF8F0E6B0F99C
:105A00000210B0F90000814201DC01207047002043
:105A1000704717B581B0022A03D8BDF8080004B05A
:105A200010BDBDF80830BDF80400D90A01EBD02143
:105A30001F2900D31F2161F3CF20C3F34511C0F309
:105A400045142144ADF804003F2900D33F2161F300
:105A50004A1003F01F0100F01F031944ADF80400C1
:105A60001F2900D31F2161F30400ADF80400FF2AB1
:105A700007D0DDE901010CF0B9FA0090BDF8000093
:105A8000CDE780B2CBE717B581B0022A03D8BDF8C5
:105A9000080004B010BDBDF80400BDF80810C30A2A
:105AA000CC0A13FB04F35B0963F3CF2000F01F0360
:105AB00001F01F0413FB04F35B0963F30400C0F35C
:105AC0004513C1F3451113FB01F1890961F34A1034
:105AD000ADF80400FF2A07D0DDE901010CF086FAD9
