:020000040800F2
:10000000185F002029030008B3220008F91A00082D
:10001000B12200085F0600089128000800000000D7
:10002000000000000000000000000000690200085D
:100030002907000800000000C50200080B23000883
:100040004303000843030008430300084303000878
:100050004303000843030008430300084303000868
:100060004303000843030008430300084303000858
:1000700061060008430300086D06000843030008FA
:100080004303000843030008430300084303000838
:100090004303000843030008430300084303000828
:1000A00043030008C9230008430300084303000872
:1000B0004303000843030008430300084303000808
:1000C00043030008430300084303000843030008F8
:1000D0004303000879280008430300088528000826
:1000E00043030008430300084303000843030008D8
:1000F00043030008430300084303000843030008C8
:1001000043030008430300084303000843030008B7
:1001100043030008430300084303000843030008A7
:10012000430300084303000879060008430300085E
:100130004303000843030008430300084303000887
:100140004303000843030008430300084303000877
:100150004303000843030008430300084303000867
:100160004303000843030008430300084303000857
:100170004303000843030008430300080000000095
:10018000430300084303000800F002F800F05CF8A5
:100190000AA090E8000C82448344AAF10107DA45E2
:1001A00001D100F051F8AFF2090EBAE80F0013F0D8
:1001B000010F18BFFB1A43F001031847C83F0000A6
:1001C000E83F00000A444FF0000C10F8013B13F028
:1001D000070408BF10F8014B1D1108BF10F8015BA0
:1001E000641E05D010F8016B641E01F8016BF9D193
:1001F00013F0080F1EBF10F8014BAD1C0C1B09D1EA
:100200006D1E58BF01F801CBFAD505E014F8016B5B
:1002100001F8016B6D1EF9D59142D6D370470000ED
:100220000023002400250026103A28BF78C1FBD8FF
:10023000520728BF30C148BF0B6070471FB503F09D
:100240005BFF1FBD10B510BD00F0D4F91146FFF7DC
:10025000F5FF02F02FFB00F0F2F903B4FFF7F2FF15
:1002600003BC00F0F5F900002C4B19680868B0E8F1
:10027000F04F80F30988BFF36F8F4FF0000080F3D9
:10028000118870470000000008480068006880F38B
:1002900008884FF0000080F3148862B661B6BFF39F
:1002A0004F8FBFF36F8F00DF00BF00BF08ED00E08E
:1002B000DFF80C00016841F470010160704700BF75
:1002C00088ED00E0EFF30980BFF36F8F134B1A68DE
:1002D0001EF0100F08BF20ED108A20E9F04F1060CB
:1002E00009B44FF0500080F31188BFF34F8FBFF374
:1002F0006F8F03F0CBF94FF0000080F3118809BC39
:1003000019680868B0E8F04F1EF0100F08BFB0EC95
:10031000108A80F30988BFF36F8F70471C0000209C
:10032000EFF30580704700000948804709480047FF
:10033000FEE7FEE7FEE7FEE7FEE7FEE7FEE7FEE795
:10034000FEE7FEE704480549054A064B70470000F2
:10035000B92300088901000818590020185F0020FF
:10036000185B0020185B002053EA020C00F0698043
:100370002DE9F04B4FF00006002B1FBFB3FA83F5B9
:1003800003FA05F424FA05F65E4012BF1643B2FAEA
:1003900082F502FA05F4C5F120051EBF22FA05FC1C
:1003A00044EA0C04203556EA044C4FEA144418BFC2
:1003B000641C4FF000084FF00009904271EB030CF1
:1003C00039D3002919BFB1FA81F701FA07F6B0FA5B
:1003D00080F700FA07F6C7F120071EBF20FA07FCD6
:1003E00046EA0C062037B6FBF4FCA7EB0507103FE6
:1003F00007F01F0BCBF120060CFA0BFB2CFA06F6CC
:1004000044BFB3460026202FA4BF5E464FF0000B2A
:100410005BEA060C08BF4FF0010B19EB0B09ABFBB5
:10042000027C48EB0608C01B06FB02CC0BFB03CC8E
:1004300071EB0C01C1E70B46024641464846BDE858
:10044000F08B13B54FF000004FF00001AFF30080C8
:10045000BDE81C407047032A40F2308010F0030CC6
:1004600000F0158011F8013BBCF1020F624498BF07
:1004700011F801CB00F8013B38BF11F8013BA2F1A4
:10048000040298BF00F801CB38BF00F8013B11F01F
:10049000030300F02580083AC0F0088051F8043BBF
:1004A000083A51F804CBA0E80810F5E7121D5CBF2C
:1004B00051F8043B40F8043BAFF30080D20724BF5F
:1004C00011F8013B11F801CB48BF11F8012B24BFF3
:1004D00000F8013B00F801CB48BF00F8012B704742
:1004E00010B5203AC0F00B80B1E81850203AA0E8CF
:1004F0001850B1E81850A0E81850BFF4F5AF5FEA03
:10050000027C24BFB1E81850A0E8185044BF18C9B5
:1005100018C0BDE810405FEA827C24BF51F8043B5C
:1005200040F8043B08BF7047D20728BF31F8023BB0
:1005300048BF11F8012B28BF20F8023B48BF00F844
:10054000012B704702F0FF0343EA032242EA024212
:1005500000F02CB84FF0000200B5134694469646C2
:10056000203922BFA0E80C50A0E80C50B1F12001C6
:10057000BFF4F7AF090728BFA0E80C5048BF0CC074
:100580005DF804EB890028BF40F8042B08BF7047D2
:1005900048BF20F8022B11F0804F18BF00F8012B44
:1005A00070477047704770474FF000020429C0F051
:1005B000128010F0030C3FF4CFAFCCF1040CBCF16F
:1005C000020F18BF00F8012BA8BF20F8022BA1EBE7
:1005D0000C01FFF7C1BF5FEAC17C24BF00F8012B0B
:1005E00000F8012B48BF00F8012B70470048704706
:1005F000B45800207546FFF7F9FFAE46050069467E
:10060000534620F00700854618B020B5FFF79AFE44
:10061000BDE820404FF000064FF000074FF0000803
:100620004FF0000B21F00701AC46ACE8C009ACE884
:10063000C009ACE8C009ACE8C0098D46704710B5E8
:100640000446AFF300802046BDE81040FFF705BE2A
:1006500001491820ABBEFEE7260002007047FEE706
:10066000014800F0BFB80000280F0020014800F04A
:10067000B9B80000C80E0020014800F0B3B800006F
:10068000680E002001681823CAB2103AB2FBF3F2D8
:10069000054B6FF30901032A9B5CC36500D9091D53
:1006A00081650846704700004C41000810B50146BE
:1006B00000208B698A6A4FF0C07453B1B3F5005FB4
:1006C00015D072B1012A0CD0022A0AD0032A09D10E
:1006D00004E01AB1012A06D0022A03D1C96AC9016D
:1006E00000D5012010BDC96AA142FAD010BD002A70
:1006F000F7D0012AF2D0022AF3D0032AF3D010BD9A
:1007000030B50468256825F4802525600468636099
:100710008368402B036803D099600068C26030BDD5
:100720009A600068C16030BD704772B6FEE72DE97F
:10073000F0410446876D00F0D7FA064694F835007C
:100740000025022806D08020606584F834500120FE
:10075000BDE8F0812068016821F016010160206881
:10076000416921F080014161206C08B9A06C20B181
:100770002068016821F0080101602068016821F00B
:10078000010101600CE000F0AFFA801B052807D9D9
:1007900020206065032084F8350084F83450D7E7C2
:1007A00020680068C007EED194F85C103F208840B4
:1007B000B860012084F8350084F834500020C7E781
:1007C00090F83510022903D080214165012070473F
:1007D000052180F835100068016821F001010160F1
:1007E000002070472DE9F84304464FF00009CDF88A
:1007F000009063484FF41651A56D0068B0FBF1F707
:100800002E6894F85C10082000FA01F131420FD0F4
:1008100021680A6852070BD50A6822F004020A60B0
:1008200094F85C108840A860606D40F0010060653D
:1008300094F85C104FF0010808FA01F0304208D03B
:1008400021684969090604D5A860606D40F002007E
:10085000606594F85C1004208840304208D021681C
:100860000968890704D5A860606D40F004006065E0
:1008700094F85C1010208840304218D02168096834
:10088000090714D5A86020680168490304D50068E9
:10089000000308D5A16C07E00168C90503D401680D
:1008A00021F008010160216C09B12046884794F8C5
:1008B0005C1020208840304231D021680968C90688
:1008C0002DD5A86094F8350005282068016806D069
:1008D000490347D5006800031DD4616C1CE021F07A
:1008E000160101602068416921F080014161206C9E
:1008F00008B9A06C20B12068016821F008010160EE
:1009000094F85C103F208840A86084F8358084F813
:100910003490216D1FE0E16B09B120468847606D7E
:1009200000282BD0606DC00714D0052084F8350056
:100930002068016821F0010101600098401C0090CE
:10094000B84203D820680068C007F6D184F8358023
:1009500084F83490E16C002910D001B02046BDE845
:10096000F04308470168C905D5D4016821F010019A
:10097000016084F8358084F83490CCE7BDE8F883D2
:10098000180000202DE9F041044600F0ADF90646BC
:100990005CB1022084F83500002584F834502068CA
:1009A000016821F0010101600DE00120BDE8F08146
:1009B00000F09AF9801B052805D9202060650320E6
:1009C00084F83500F2E720680068C007F0D122689B
:1009D000116820480140D4E901031843D4E90336E3
:1009E0003343184363691843A3691843E369184301
:1009F000236A18430843616A042903D1D4E90B131D
:100A000019430843106020684069666A20F00701B6
:100A100030460E43012704280CD1A06A0643E06A41
:100A200040B12046FFF742FE20B14020606584F8C7
:100A30003570BAE7206846612046FFF723FE94F838
:100A40005C203F2191408160656584F8357000200D
:100A5000ACE700003F8010F02DE9F0410446866DC0
:100A600090F83400002501280DD0012084F83400CE
:100A700094F835700020012F07D084F83400022547
:100A80002846BDE8F0810220FBE7022784F8357094
:100A900060652046FFF734FE94F85C103F208840E4
:100AA000B0602068016841F016010160206C20B13F
:100AB0002068016841F0080101602068016841F088
:100AC00001010160DCE7000070B5044600F00CF99C
:100AD0000546601C02D004480078044400F004F984
:100AE000401BA042FAD370BD0C0000202DE9F84F46
:100AF000DFF8BCA10022012503264FF00F090AF1FF
:100B0000040BAAF1040E00BF0B6805FA02F423409F
:100B1000A34270D10F7907F00307012F01D0022FF4
:100B200016D187684FEA420806FA08FC27EA0C0744
:100B3000D1F80CC00CFA08FC4CEA070CC0F808C04D
:100B40004768A7430C79C4F3001494403C434460C5
:100B50000C79E443A4070AD0C4684FEA420C06FAB1
:100B60000CF7BC438F6807FA0CF72743C7600C7972
:100B700004F00304022C12D1D40800EB840CDCF83E
:100B800020405707FF0E09FA07F824EA0804D1F8B5
:100B9000108008FA07F848EA0408CCF820800468B6
:100BA0004FEA420C06FA0CF7BC430F7907F0030733
:100BB00007FA0CF7274307604C6814F4403F70D0E5
:100BC0003C4C276847F480472760246822F00307DD
:100BD00004F480440094384C07EB040CDCF808481B
:100BE00097074FEA177809FA08F7BC43334FB84222
:100BF00002D1002724E054E0314FB84201D101274F
:100C00001EE0304FB84201D1022719E02E4FB84202
:100C100001D1032714E02D4FB84201D104270FE082
:100C20002B4FB84201D105270AE02A4FB84201D123
:100C3000062705E0284FB84201D1072700E0082722
:100C400007FA08F72743CCF80878DAF80040574647
:100C5000D1F804C09C435FEACC2C00D51C433C6017
:100C6000DBF800405F46D1F804C09C435FEA8C2C5F
:100C700000D51C433C60DEF800407746D1F804C044
:100C80009C435FEA8C3C00D51C433C60084F083F06
:100C90003C68D1F804C09C435FEACC3C00D51C43BF
:100CA0003C60521C102AFFF42FAFBDE8F88F000003
:100CB000083C01404438024000300140000002403E
:100CC0000004024000080240000C024000100240F4
:100CD0000014024000180240001C02400AB1816169
:100CE00070470904FBE70000014880687047000076
:100CF0000C0000200248816802781144816070472E
:100D00000C0000200B4810B5016841F4007101602F
:100D1000016841F480610160016841F48071016003
:100D2000032000F099F80F2000F006F800F04AF8D0
:100D3000002010BD003C024030B505461C4887B07D
:100D40000024016841F001010160006806A900F07B
:100D50000100009001A800F02BF900F059F91549A5
:100D60004000B0FBF1F11548134A491E026040F201
:100D7000E732C0E90324C0E90114846100F040FBBC
:100D8000040012D10D4800F069FB04000DD11920B8
:100D900000F034F8102D07D200222946192000F067
:100DA0003BF80748056000E0012407B0204630BD4D
:100DB0004438024040420F0000000140880F0020EC
:100DC000100000200C4882B0016841F480410160AD
:100DD000006800F4804000900748001F016841F05F
:100DE000805101600068002200F0805000900F21C7
:100DF000901E02B000F010B844380240002809DB11
:100E000000F01F02012191404009800000F1E02024
:100E1000C0F8001170470000F0B40E4B1B680C4680
:100E2000C3F30223C3F10705042D00D90425191DBE
:100E3000072901D2002300E0DB1E012606FA05F196
:100E4000491E214099409E40761E16403143F0BC19
:100E500001F01FBD0CED00E0064900F00702086834
:100E60004FF6FF03184040EA0220034A104308608F
:100E7000704700000CED00E00000FA052DE9F04796
:100E80000E46050065D0DFF81481D8F80000F7B2EF
:100E900000F00700B04207D288F80070D8F80000D0
:100EA00000F00700B04254D128683D4C810712D5AC
:100EB000400703D5206840F4E05020602878000700
:100EC00003D5206840F4604020602068A96820F0C5
:100ED000F000084320602878C0072DD030496868AA
:100EE0000839012812D0022813D0032811D009682C
:100EF000890700292DDA216821F0030101432160CF
:100F0000FFF7F2FE814641F2883A0EE00968890354
:100F1000EFE709688901ECE7FFF7E6FEA0EB0901BE
:100F2000514502D90320BDE8F0872068696800F0C8
:100F30000C00B0EB810FEFD1D8F80010404601F063
:100F40000701B14207D90770006800F00700B042FE
:100F500001D00120E7E72878400705D52068E96837
:100F600020F4E050084320602878000706D5206868
:100F7000296920F4604040EAC100206000F058F880
:100F80002168084AC1F30311515CC8400649086052
:100F900006480068FFF7D0FE0020C4E7003C02408E
:100FA00008380240544100081800002010000020BA
:100FB0000F2202600C4A136803F0030343601368B6
:100FC00003F0F0038360136803F4E053C360126816
:100FD0004FF4E05303EAD20202610448006800F0D3
:100FE000070008607047000008380240003C0240DB
:100FF0000448054900680968044AC1F38221515C2C
:10100000C8407047180000200838024064410008BA
:101010000448054900680968044AC1F34231515C3B
:10102000C84070471800002008380240644100089A
:10103000154810B5006810F00C02144813D0411088
:10104000042A0FD0082A0ED10F4C241F22682368CF
:1010500002F03F025B0207D52068C0F38810A0FBB6
:10106000010106E0084610BD2168C1F38811A1FB0B
:1010700000010023FFF778F92168C1F30141491C01
:101080004900B0FBF1F010BD083802400024F40024
:101090002DE9F84F04006ED02078DFF84C93C0079C
:1010A000A9F104054AD009F104000168C1F38101E6
:1010B000012908D00068C0F3810002280AD1D9F8BC
:1010C0000000400206D52868800337D560680028F4
:1010D000E1D033E06068B0F5803F10D0B0F5A02FCC
:1010E000286810D020F480302860286820F4802000
:1010F00028606068A8B1FFF7F7FD06460DE0286894
:1011000040F48030F4E740F480202860F7E700BF27
:10111000FFF7EAFD801B642873D828688003F7D5A1
:101120000CE0FFF7E1FD064605E000BFFFF7DCFD40
:10113000801B6428F0D828688003F7D42078DFF873
:10114000AC8280074FF0000A3ED5A748001D016819
:1011500011F00C0F08D00068C0F3810002280BD1F9
:10116000D9F80000400207D42868800716D5E06847
:10117000012800D112E033E1E068B8B10120C8F8DD
:101180000000FFF7B1FD064605E000BFFFF7ACFD2C
:10119000801B0228C0D828688007F7D528682169F5
:1011A00020F0F80040EAC10028600DE0C8F800A077
:1011B000FFF79AFD064604E0FFF796FD801B022824
:1011C0001FD828688007F7D42078000722D5864FDB
:1011D00087486169703771B101210160FFF784FDB3
:1011E000064604E0FFF780FD801B022809D8386816
:1011F0008007F7D50EE0C0F800A0FFF775FD0646A2
:1012000005E082E0FFF770FD801B02287DD838687A
:101210008007F7D42078400768D5DFF8CCB10027E5
:101220000BF13C0BDBF80000C0000BD4DBF8001026
:1012300041F08051CBF80010DBF80000012700F0EE
:10124000805000906B4E3068C00510D4306840F478
:1012500080703060FFF748FD009005E0FFF744FD27
:101260000099401A022850D83068C005F6D55E4E65
:10127000A0686C3601280FD00528306810D020F007
:1012800001003060306820F004003060A068B8B120
:10129000FFF72AFD00900FE0306840F00100F4E70E
:1012A00040F004003060F7E7FFF71EFD0099411A97
:1012B00041F28830814266D830688007F4D50EE06C
:1012C000FFF712FD009007E0FFF70EFD0099411AAD
:1012D00041F28830814256D830688007F4D42FB16B
:1012E000DBF8001021F08051CBF80010A069C8B3E2
:1012F0003D49091D0968C1F3810102294AD002282C
:10130000504607D0C8F8600000E03CE0FFF7ECFC76
:1013100004463BE04746C8F86000FFF7E5FC064698
:1013200005E000BFFFF7E0FC801B02282BD82868EF
:101330008001F7D4D4E907010843A16A2E4A49087D
:1013400002EB0141626A41EA8211084394F82C10D1
:1013500040EA0161C9F8001001203866FFF7C4FCBB
:10136000044606E03EE000BFFFF7BEFC001B02287B
:1013700009D828688001F7D534E000BFFFF7B4FC36
:10138000001B022802D90320BDE8F88F28688001DD
:10139000F4D427E00128F7D0D9F80000E26900F47E
:1013A000800191421CD1226A00F03F01914217D185
:1013B00047F6C071626A0140B1EB821F10D1A26A88
:1013C0004FF0FF3300F4403103EB5202B1EB024F18
:1013D00006D194F82C1000F07060B0EB016F01D0D2
:1013E0000120D1E70020CFE7043802400000474247
:1013F000800E4742007000400000FFFF70477047BA
:1014000010B5040003D094F83D0010B107E00120AE
:1014100010BD002084F83C00204600F01EF8022099
:1014200084F83D00211D206800F0D4FF012084F8DD
:10143000460084F83E0084F83F0084F8400084F8B9
:10144000410084F8420084F8430084F8440084F8A2
:10145000450084F83D00002010BD704790F83D1015
:10146000012901D001207047022180F83D10016858
:10147000CA6842F00102CA6000681149884214D06B
:10148000B0F1804F11D00F4988420ED00E498842EA
:101490000BD00E49884208D00D49884205D00D492D
:1014A000884202D00C49884204D1816801F00701CA
:1014B000062903D0016841F0010101600020704756
:1014C000000001400004004000080040000C004003
:1014D00000040140004001400018004070472DE921
:1014E000F04104460068C66805694FF00007A90787
:1014F00013D5B10711D5F91E0161012020772068AD
:1015000080698007204602D0FFF7E8FF04E000F082
:101510007EF8204600F07CF82777680716D570071C
:1015200014D521686FF0040008610220207720683C
:10153000806910F4407F204602D0FFF7CFFF04E01F
:1015400000F065F8204600F063F82777280715D5E6
:10155000300713D521686FF0080008610420207758
:101560002068C0698007204602D0FFF7B7FF04E07B
:1015700000F04DF8204600F04BF82777E80616D526
:10158000F00614D521686FF010000861082020775C
:101590002068C06910F4407F204602D0FFF79EFF0C
:1015A00004E000F034F8204600F032F82777E8072E
:1015B00008D0F00706D021686FF0010008612046CE
:1015C00000F028F8280608D5300606D521686FF007
:1015D000800008612046FFF711FF680608D57006F5
:1015E00006D521686FF040000861204600F01CF825
:1015F000A8060AD5B00608D521686FF0200008615A
:101600002046BDE8F041FFF7FABEBDE8F081704723
:101610007047000000680349884201D1FFF76ABBA8
:10162000704700000000014070477047704700009D
:10163000F8B5016804460868CA684B6910F00F0FD6
:101640004FF0000559D003F0010602F490773743BC
:1016500065D0C10705D0D10503D5616C41F001010A
:101660006164410705D5D90703D0616C41F00201DF
:101670006164810705D5D90703D0616C41F004018D
:101680006164010707D502F02001314303D0616C8A
:1016900041F008016164616C00293AD0800604D5EC
:1016A000900602D5204600F0B0FF20684069616CCA
:1016B000C0F38010090700D460B3204600F070FF2B
:1016C00020684069400621D52068143050E8001F8A
:1016D00021F0400140E80012002AF5D1E06BA8B1EA
:1016E00072490165E06BFFF76BF8002811D0E06BE1
:1016F000016D01B0BDE8F040084783060FD59306A1
:101700000DD52046BDE8F84000F07FBF2046FFF72A
:101710008DFFF8BD2046FFF789FF6564F8BD266B95
:101720002023012E7ED1C6067CD5D6067AD5086840
:101730004868009048694FF0020640064DD5E26BBC
:10174000106840684FF480770004000C3AD0A18DF7
:10175000814237D9E085D069B8422DD020680C305D
:1017600050E8001F21F4807140E80012002AF5D1F2
:101770002068143050E8001F21F0010140E80012F9
:10178000002AF5D12068143050E8001F21F04001F4
:1017900040E80012002AF5D184F842302563206821
:1017A0000C3050E8001F21F0100140E80012002A20
:1017B000F5D1E06BFEF7BBFF6663A08DE18D401AAB
:1017C00081B206E0A18D8142A8D1D069B842A5D1ED
:1017D00066632046FFF729FFF8BDA08DE18D401A12
:1017E00081B2E08D0028F7D00029F5D020680C30B8
:1017F00050E8002F22F4907240E80027002FF5D126
:101800002068143050E8002F22F0010240E8002741
:10181000002FF5D184F84230256320680C3050E861
:10182000002F00E006E022F0100240E80023002B29
:10183000F3D1CDE705062BD5150629D594F841003F
:101840002128C9D1A068B0F5805F01D12069B0B16D
:10185000206A411C2162216800784860E08C401EAB
:101860000004000CE084B7D12068C16821F0800139
:10187000C1602068C16841F04001C160F8BD206AC4
:101880000088C0F308004860206A801C2062E5E7F9
:101890004006F3D55006F1D5CA68204622F0400232
:1018A000CA6084F8413000F026F9F8BDA52400088C
:1018B00070B5040004D094F84100002510B106E092
:1018C000012070BD84F84050204600F023F8242009
:1018D00084F841002068C16821F40051C1602046AD
:1018E00000F0F4FE2068016921F490410161206854
:1018F000416921F02A0141612068C16841F4005129
:10190000C1606564202084F8410084F8420065636A
:10191000002070BD2DE9F04387B0064614216846CB
:10192000FEF718FEDFF83CC1022135684E4803225D
:10193000072300248F064FF48069654537D14A4D4F
:101940001435D5F800C04CF0100CC5F800C02D6857
:1019500005F010050595056845F00105056000686E
:1019600000F00100059050028DE8130069463F48E1
:10197000CDE90323FFF7BAF83E4D3D482860C5E99D
:101980000174C5E903496C61AC61EC612C622846C5
:101990006C62FEF7F7FF08B1FEF7C7FEF5630022A1
:1019A00005212520AE63FFF737FA252055E0DFF843
:1019B000C8C0654553D12C4D1035D5F800C04CF446
:1019C000802CC5F800C02D6805F4802505950568B4
:1019D00045F002050560006800F0020005904FF434
:1019E00040608DE8130069462448CDE90323FFF7E2
:1019F0007DF8204D22486035B846E5E802074020D2
:101A00004F4691C51B4845F814496030AC61EC6104
:101A10002C626C62FEF7B6FF08B1FEF786FEB56376
:101A2000AE63144D1648C03530382860C5E90184CE
:101A3000C5E903476C61AC61EC612C6228466C62BD
:101A4000FEF7A0FF08B1FEF770FEF5630022052146
:101A50002720AE63FFF7E0F92720FFF7CFF907B0A3
:101A6000BDE8F08300100140303802400000024021
:101A700040640240680E002000480040000402401C
:101A80005860024090F84230202B01D0022070476D
:101A900021B11AB10023036300F09EBE01207047FC
:101AA0000068104988421CD110480F4902788B5CAD
:101AB0000AB9AA2B11D1521CD2B20270202A02D329
:101AC0000022027009E0032A06D9CB789B1DDBB205
:101AD0009A4201D101234370114401220448FFF7C7
:101AE000D1BF704700100140A40D0020000000206D
:101AF000D80D002070477047FEE7000070B506461D
:101B0000094800240188458820464D43214600F0BD
:101B1000F3F900F0B9FA03E0304600F07BFA641CF8
:101B2000AC42F9D370BD0000A45800202DE9F0416B
:101B3000F0212C232A252E4C4FF4A0722B2630B1F5
:101B4000012804D0022815D0032813D022E0002752
:101B5000A77121806280238165810028A6814FF0D2
:101B6000360003D000F01CFAC02011E000F018FA93
:101B700000200DE00127A77122806180238165810B
:101B80000228A6814FF036002ED000F009FA60201E
:101B900000F0CCF9608900F003FA002000F0C6F9EB
:101BA000002000F0C3F92088401EC0F30F2000F091
:101BB000BDF92078401EC0B200F0B8F9A08900F04D
:101BC000EFF9002000F0B2F9002000F0AFF96088D2
:101BD000401EC0F30F2000F0A9F9A078BDE8F04145
:101BE000401EC0B200F0A2B900F0DAF9A020CFE7A1
:101BF000A45800202DE9FE4F161ACDE900104FF031
:101C000000085D1A47464FF0FF30002E02DD4FF00E
:101C1000010102E003D14FF000018B4602E0834650
:101C2000C6F10006002D02DD4FF0010002E003D1F5
:101C30004FF00000824602E08246C5F10005AE4248
:101C400001DD344600E02C46601C4FF00009029094
:101C500018E0009881B2019880B200F019F8B04401
:101C60002F44A04504DD0198A8EB040858440190D6
:101C7000A74203DD00983F1B5044009009F101008A
:101C80001FFA80F902998945E3DDBDE8FE8F000067
:101C900010B500F031F900F0F7F903480088BDE80D
:101CA000104000F0B7B900009C0000202DE9F04181
:101CB0001C4615460E4607460B46FFF79BFF3A4665
:101CC000234631461046FFF795FF23462A4619461C
:101CD0003846FFF78FFF2A4623463146BDE8F041DC
:101CE0001046FFF787BF000070B5814C01224021EC
:101CF0002046FEF7F3FF012251022046FEF7EEFFD9
:101D00007C4E012280213046FEF7E8FF01221502B9
:101D100029462046FEF7E2FF012220213046FEF749
:101D2000DDFF012280212046FEF7D8FF0022294650
:101D30002046FEF7D3FF0120FEF7C6FE012229460A
:101D40002046FEF7CBFF0120FEF7BEFE002229460B
:101D50002046FEF7C3FF0A20FEF7B6FE0122294601
:101D60002046FEF7BBFF7820FEF7AEFE7820FEF798
:101D7000ABFE112000F014F97820FEF7A5FE362006
:101D800000F00EF9002000F0D1F83A2000F008F938
:101D9000552000F0CBF8B22000F002F90C2000F042
:101DA000C5F80C2000F0C2F8002000F0BFF8332086
:101DB00000F0BCF8332000F0B9F8B72000F0F0F8DC
:101DC000462000F0B3F8BB2000F0EAF81B2000F03A
:101DD000ADF8C02000F0E4F82C2000F0A7F8C220F5
:101DE00000F0DEF8012000F0A1F8C32000F0D8F8E0
:101DF0000F2000F09BF8C42000F0D2F8202000F063
:101E000095F8C62000F0CCF80F2000F08FF8D02015
:101E100000F0C6F8A42000F089F8A12000F086F8B0
:101E2000D62000F0BDF8A12000F080F8E02000F0FE
:101E3000B7F8F02000F07AF8002000F077F80620DC
:101E400000F074F8042000F071F8052000F06EF83E
:101E5000052000F06BF8312000F068F8442000F015
:101E600065F8482000F062F8362000F05FF8122094
:101E700000F05CF8122000F059F82B2000F056F822
:101E8000342000F053F8E12000F08AF8F02000F050
:101E90004DF80B2000F04AF80F2000F047F80F2013
:101EA00000F044F80D2000F041F8262000F03EF844
:101EB000312000F03BF8432000F038F8472000F0D4
:101EC00035F8382000F032F8142000F02FF81420F4
:101ED00000F02CF82C2000F029F8322000F026F831
:101EE000212000F05DF8BDE87040292000F058B8CE
:101EF000001002400000024070B50B4E05460C4633
:101F0000708900F04DF8280A00F010F8E8B200F0EF
:101F10000DF8B08900F044F8200A00F007F8E0B2AC
:101F2000BDE8704000F002B8A45800202DE9F04749
:101F3000DFF8648005464FF40079002249464446A4
:101F40004046FEF7CBFE012280212046FEF7C6FE6A
:101F5000124E00244FF6FF77280601D5012200E03B
:101F6000002280213046FEF7B9FE07EA450500222F
:101F700020213046FEF7B2FE012220213046FEF736
:101F8000ADFE641CE4B2082CE6D349464046BDE8E9
:101F9000F0470122FEF7A2BE0010024000000240FE
:101FA0002DE9F047DFF8648005464FF40079002200
:101FB000494644464046FEF791FE002280212046D5
:101FC000FEF78CFE124E00244FF6FF77280601D54F
:101FD000012200E0002280213046FEF77FFE07EA62
:101FE0004505002220213046FEF778FE01222021FF
:101FF0003046FEF773FE641CE4B2082CE6D3494673
:102000004046BDE8F0470122FEF768BE00100240DE
:10201000000002402DE9F047DFF8648005464FF4E8
:1020200000790022494644464046FEF757FE012209
:1020300080212046FEF752FE124E00244FF6FF7715
:10204000280401D5012200E0002280213046FEF75D
:1020500045FE07EA4505002220213046FEF73EFEF8
:10206000012220213046FEF739FE641CE4B2102C18
:10207000E6D349464046BDE8F0470122FEF72EBEB2
:10208000001002400000024001480089FFF788BFAD
:10209000A4580020154808B5016841F400110160FA
:1020A000016801F400110091016841F480010160B0
:1020B0000068002200F48000009005210C20FEF74B
:1020C000ABFE0C20FEF79AFE002205210E20FEF743
:1020D000A3FE0E20FEF792FE002205213A20FEF715
:1020E0009BFEBDE808403A20FEF788BE303802402B
:1020F00010B5074A0021074800F04AFC064C044A84
:10210000002120602432054800F042FC606010BDD0
:1021100004410008B522000804000020BD22000888
:102120002DE9F04387B014216846FEF713FA4048C2
:102130000024016841F010010160016801F0100104
:102140000591016841F004010160016801F004019A
:102150000591016841F080010160016801F0800192
:102160000591016841F001010160016801F0010180
:102170000591016841F0020101600068DFF8B49048
:1021800000F00200059001224FF470714846FEF7FE
:10219000A5FD294F0122A0213846FEF79FFDDFF85B
:1021A0009C80002204214046FEF798FDFE14002288
:1021B00031464846FEF792FD4FF4E070009001254D
:1021C000CDE90154694648460394FEF78FFCA020F0
:1021D0000090CDE90154694638460394FEF786FC29
:1021E0004020CDE90004694638460294FEF77EFCA3
:1021F0000420CDE90005CDE9025469464046FEF7CA
:1022000075FC6802CDE90005022569464846CDE91E
:102210000245FEF76BFC01AA1120009682E831000E
:1022200069464846FEF762FC07B0BDE8F08300004F
:10223000303802400010024000000240000402401A
:102240000C4810B50A4901604FF4E13141600021AA
:1022500081600C22C160C0E904128161C161FFF795
:1022600027FB002803D0BDE81040FEF75EBA10BD82
:1022700000100140D80D00200C4810B50A4901603B
:102280004FF4E1314160002181600C22C160C0E95E
:1022900004128161C161FFF70BFB002803D0BDE888
:1022A0001040FEF742BA10BD00480040200E00204A
:1022B000FEE7FEE7022000F02FFBFBE7FFF714FD2F
:1022C0000320FFF733FC4FF6FF70FFF717FC4FF4C6
:1022D0008C742821962322460846FFF7E7FC052048
:1022E00000F01AFBBE232246A021E620FFF7DEFC09
:1022F000052000F011FBBE235A22A0212820FFF761
:10230000D5FC052000F008FBFBE710B54FF0E020FE
:10231000006901F033FD012803D0BDE8104001F051
:1023200061BA10BD30B593B030216846FEF712F99E
:1023300014210CA8FEF70EF91D480025016841F094
:1023400080510160006800F08050119019480168C8
:1023500041F4804101600068022400F48040119043
:1023600001200090000401908001CDE90640082082
:102370000890A820CDE9090404200B906846FEF7D8
:1023800087FE08B172B6FEE70CA90F2081E8310084
:102390004FF4A0500F904FF48050109002210CA8E1
:1023A000FEF76CFD002801D072B6FEE713B030BD19
:1023B00040380240007000400248016841F470015A
:1023C0000160704788ED00E00148FFF788B8000021
:1023D000880F0020F0B50268274B284D284E294F62
:1023E000294C4FF0804C984209D0604507D0A84254
:1023F00005D0B04203D0B84201D0A04204D122F0AF
:10240000700E4A6842EA0E0298421BD0604519D00D
:10241000A84217D0B04215D0B84213D0A04211D074
:102420001A4DA8420ED01A4DA8420BD0194DA84201
:1024300008D0194DA84205D0184DA84202D0184D19
:10244000A84203D122F44075CA682A434D6922F09C
:1024500080022A438D68C5620D688562984201D06A
:10246000A04201D109690163016841F004010160E2
:10247000012141610260F0BD000001400004004004
:1024800000080040000C00400004014000400140F2
:10249000004401400048014000180040001C00407A
:1024A0000020004010B5806B0021C185FFF7BEF809
:1024B00010BD70B5846B2068406994F84110C0F37A
:1024C000C0100025212904D118B1E584204600F070
:1024D0008EF82068406994F84210C0F380102229D9
:1024E00004D118B1E585204600F05AF8606C40F040
:1024F000100060642046FFF799F870BD10B50146E2
:10250000806B096809684FF00002C9052ED4C285A6
:1025100001680C3151E8003F23F4807341E8003436
:10252000002CF5D10168143151E8003F23F001037C
:1025300041E80034002CF5D10168143151E8003F26
:1025400023F0400341E80034002CF5D1202180F82D
:102550004210016B012909D101680C3151E8003F9B
:1025600023F0100341E80034002CF5D14263016BE5
:10257000012902D0FFF794FA10BD818DFFF755F8BD
:1025800010BD10B5806B01214163016B012902D0A0
:10259000FFF7B0FA10BD818D4908FFF746F810BD6E
:1025A00001680C3151E8002F22F4907241E80023B9
:1025B000002BF5D10168143151E8002F22F00102FF
:1025C00041E80023002BF5D1016B012909D10168F5
:1025D0000C3151E8002F22F0100241E80023002BBB
:1025E000F5D1202180F84210002101637047016875
:1025F0000C3151E8002F22F0C00241E80023002BEB
:10260000F5D1202180F84110704708B590F84210AC
:10261000222901D0022008BD82684FF480539A42DB
:1026200001D1016921B1816A9A421BD04AB10AE005
:102630000268816A5268C2F308020A80816A891CB2
:1026400008E0026972B10268526802F07F020A7003
:10265000816A491C8162C18D491E0904090CC1852A
:1026600003D01BE002685268F1E70168CA6822F0F3
:102670002002CA600168CA6822F48072CA600168D8
:102680004A6922F001024A61202180F842100021AB
:102690004163026B012A03D0FFF702FA002008BD54
:1026A000016301680C3151E8002F22F0100241E86B
:1026B0000023002BF5D101680A68D20602D50A680A
:1026C00049680091818DFEF7B0FFE7E770B50446D9
:1026D00000680169E26821F44051114301612169F8
:1026E000A068E26908436169114308432168CA6828
:1026F00049F20C639A430243CA6020684169A269A7
:1027000021F440711143416131492068884202D06F
:102710003049884202D1FEF77BFC01E0FEF768FCFD
:10272000E2690023192164253226B2F5004F626860
:1027300028D0A0FB0101930F9200FDF715FE014682
:10274000B0FBF5F06FF01802504301EB800006EB90
:102750000010B0FBF5F000F0F002B1FBF5F002EB79
:102760000012B1FBF5F06FF01803584301EB800045
:1027700006EB0010B0FBF5F000F00F0021681044EC
:10278000886070BDA0FB010192185B41FDF7ECFD74
:102790000146B0FBF5F00201B1FBF5F06FF0180354
:1027A000584301EB800006EBC000B0FBF5F000F0F1
:1027B000F80002EB4002B1FBF5F0584301EB80005A
:1027C00006EBC000B0FBF5F000F00700D6E7000014
:1027D000001001400014014038B581620446828532
:1027E000002013466064222284F84220E56B1F4AD1
:1027F000EA63E56B1E4A2A64E56B1E4AEA64E26BF3
:1028000010650A462168E06B091DFEF725F930B115
:1028100010206064202084F84200012038BD206828
:10282000016840680090206948B120680C3050E889
:10283000001F41F4807140E80012002AF5D12068A1
:10284000143050E8001F41F0010140E80012002A56
:10285000F5D12068143050E8001F41F0400140E8F5
:102860000012002AF5D1002038BD0000FD24000828
:1028700083250008B32400080148FEF7D9BE0000F4
:10288000D80D00200148FEF7D3BE0000200E002026
:10289000FEE70907090E002804DB00F1E02080F8BC
:1028A0000014704700F00F0000F1E02080F8141DC4
:1028B00070470000FEF726FAFFF734FDFFF730FC03
:1028C000FFF7E8FBFFF7D8FCFFF7BAFC0E480068FB
:1028D000C16841F01001C16020220C490C48FFF78B
:1028E000D1F80A49502250390748FFF775FF0022F6
:1028F00080210848FEF7F2F900F01CF8FFF7F8FB1A
:1029000000F02AF8FEE70000200E0020A40D0020B1
:10291000D80D00200000024010B5EFF3058111B181
:102920006FF0050403E0002408B100F0FBFD204631
:1029300010BD0000EFF3058010B16FF00500704787
:102940000448016811B14FF0FF3070470121016068
:10295000002070476C00002010B5EFF3058010B127
:102960006FF0050010BD08480168012902D04FF042
:10297000FF3010BD054A002182F8141D02210160BC
:1029800000F038FE002010BD6C0000200BE000E0DD
:102990002DE9FF414FEA01034FF00005EFF30581F8
:1029A000039549BB40B38027182100244AB3166819
:1029B00006B1344696691EB13146761E382E02D2D3
:1029C0001679F60703D0002004B0BDE8F0815669FF
:1029D00006B1B708D2F808C0BCF1000F0DD0D56819
:1029E0005C2D18D312693AB136B18DE806103A461B
:1029F000214601F098F903900DE0D6685EB912699E
:102A00004AB903AACDE90012BAB2214601F05EF933
:102A1000012800D003950398D6E700002DE9F04186
:102A2000134C0F460546E6682068001D00F044FC84
:102A3000681C07D137B12168BDE8F0410D48091D78
:102A400000F08BBC20683544B5424560216805D252
:102A5000A06BBDE8F041091D00F067BC606B091D6B
:102A600000F063FCA06A854200D2A562BDE8F08157
:102A70001C000020C01400202DE9F041054600F0A4
:102A800079FC2D4CA068401CA06020682B4F10B131
:102A9000606930B32BE02560A068012827D10026AB
:102AA00006EB860007EB800000F031FC761C382E28
:102AB000F6D3234800F02BFC2148143000F027FC0B
:102AC0001F48283000F023FC1D483C3000F01FFC5C
:102AD0001B48503000F01BFC194860631430A063A1
:102AE00005E02068E96AC06A884200D82560606A0B
:102AF000401C60626864E86A2169884200D92061EC
:102B000000EB800007EB8000291D00F026FC00F0A0
:102B100051FC606900280CD02068E96AC06A8842CC
:102B200007D208494FF080500860BFF34F8FBFF3C2
:102B30006F8FBDE8F08100001C0000201010002005
:102B40007014002004ED00E038B500F013FC104CC8
:102B50002068C8B90F4800F0DAFB0E48143000F0C6
:102B6000D6FB0C48E060143020610A4B0020F03B9B
:102B7000009003F1500210210A2000F049FE20606D
:102B800010B105A100F098FCBDE8384000F012BC7F
:102B900058000020C4150020546D72510000000040
:102BA00030B4026C0B46002A0BD0C1681144C160DE
:102BB0008468A14201D30168C16030BC1846FDF7AA
:102BC0004ABC30BC70472DE9F041856B174604467E
:102BD0000026026C82B1C7B1E068FDF73CFCE168F9
:102BE000206C091AE1602268914202D2A168081A99
:102BF000E060022F16D017E02068A8B9A06801F0A5
:102C00003DF906460020A0600EE06068FDF723FC59
:102C1000216C606808446060A168884204D3206821
:102C2000606001E005B16D1E6D1CA5633046BDE816
:102C3000F08110B5044690F8590058B101280CD025
:102C400002280FD0502080F31188BFF34F8FBFF3BD
:102C50006F8FFEE7206B00F0C1FB2046BDE81040FF
:102C600000F0BCBB10BD000010484FF4705142078B
:102C700006D0C01D0D4920F00700411AC1F5705162
:102C80000B4A00230144C2E900030839183A21F035
:102C9000070111604B600B600B1AC0E900139360D1
:102CA0004FF000405360506170470000A41C0020AA
:102CB00088000020144E154CA6F29C474FF0805817
:102CC000DFF84C9012E000BF00F054FBF068C568DC
:102CD000281D00F0F1FAA068401EA0606068401E48
:102CE000606000F067FB2846FFF7A3FF60680028DC
:102CF000EAD138680128F9D9C9F80080BFF34F8FAD
:102D0000BFF36F8FF2E70000AC1400201C0000201E
:102D100004ED00E070B51D46049C51B1C4F80020DC
:102D2000C4E90F010121204600F0A6FD84F84C50B3
:102D300070BD2460F4E700002DE9F05F8846DDE90E
:102D40000B941546834691009A460A9EA522206B55
:102D5000FDF7F8FB6FF00301206B01EB85010844E0
:102D600020F00707780707D0502080F31188BFF3C1
:102D70004F8FBFF36F8FFEE70025B8F1000F0FD024
:102D80005FF00000221818F8001082F8341018F8CC
:102D9000001011B1401C1028F4D384F8435001E016
:102DA00084F83450382E00D33726E662C4E9136520
:102DB000201D00F0B7FA04F1180000F0B3FA246106
:102DC000C6F138006462A061656584F858505246C7
:102DD0005946384600F05AFA2060B9F1000F01D088
:102DE000C9F80040BDE8F09F30B5114900E0114638
:102DF0000A688242FBD34B685C18844203D1406866
:102E000018444860084643681C18944209D1084C8D
:102E1000183C2468A24209D052681A4442600A68E9
:102E200012680260814200D0086030BD0460F9E79A
:102E30008800002070B5002441600B4D0061914274
:102E400006D8D11A8269914206D2011D286907E08D
:102E50009A4203D2994201D3012403E0011DE8689C
:102E600000F063FA204670BD5800002010B50446FB
:102E700000F080FAA06B28B15FF0000400F09AFA2D
:102E8000204610BD0124F9E730B589B03C4D6EE015
:102E90000498002806DADDE90601059A90470498AF
:102EA000002864DB069C606910B1201D00F004FA64
:102EB00003A800F0D7F8024604980A2857D2DFE8A2
:102EC00000F00505052D334A05052D3394F828003B
:102ED00040F0010084F828000599A069059B014491
:102EE0002046FFF7A7FF68B3216A2046884794F879
:102EF000280040073BD5002000900598A1690023D9
:102F000042181946204601F0C3F8D8B9502080F382
:102F10001188BFF34F8FBFF36F8FFEE714F8280FB0
:102F200020F00100207022E094F8280040F0010019
:102F300084F828000598A06128B18118134620461E
:102F4000FFF778FF13E0502080F31188BFF34F8F15
:102F5000BFF36F8FFEE794F82800810703D4204663
:102F600000F03CFA03E020F0010084F82800002281
:102F700004A9286800F0D4FD002889D109B030BD2B
:102F8000580000202DE9FC410F46054600F076FB75
:102F900001A800F067F80446019818B100F0E6FFB8
:102FA000BDE8FC81254EAFB130690068D0B3002781
:102FB000291B3A46306800F093FA00F0D7FF00284A
:102FC000EED11F494FF080500860BFF34F8FBFF321
:102FD0006F8FE5E7A542EBD800F0C8FFF068274601
:102FE000C068C468201D00F067F994F82800410704
:102FF00019D5A0692B4641193A462046FFF71AFF1A
:10300000A8B100200346014600902A46204601F060
:103010003FF860B9502080F31188BFF34F8FBFF3A2
:103020006F8FFEE707E020F0010084F82800216A96
:1030300020468847B4E70127BAE70000580000207F
:1030400004ED00E00648416B096829B1416BC9688D
:10305000C9684968816270474FF0FF31FAE70000A4
:103060001C00002070B5054600F096FE064E044692
:10307000B068844203D200F009F8012000E000208B
:1030800028602046B46070BD58000020F8B5194D86
:1030900020E0C068C4680668201D00F00DF9216AB0
:1030A0002046884794F82800400713D5A06930448B
:1030B000B04206D924616060211DE86800F035F94E
:1030C00008E000200346014600903246204600F00A
:1030D000DFFF38B1E86801680029DAD12969C5E95C
:1030E0000310F8BD502080F31188BFF34F8FBFF35A
:1030F0006F8FFEE75800002008484068401C4FF0E2
:10310000500080F3118804D0BFF34F8FBFF36F8F4F
:10311000FEE7BFF34F8FBFF36F8FFEE790000020F5
:10312000074CE068016841B1C0680021D0F8000098
:10313000FFF728FFFFF7A8FEF3E701210020F7E7DC
:10314000580000202DE9F041044600F013F994F9ED
:10315000455004F1240609E0606A48B1304600F0A9
:10316000CDFE08B100F00CFA6D1E6DB2002DF3DC3F
:103170004FF0FF3684F8456000F01CF900F0FAF8D3
:1031800094F9445004F1100709E0206948B1384629
:1031900000F0B4FE08B100F0F3F96D1E6DB2002D21
:1031A000F3DC84F84460BDE8F04100F003B90000AE
:1031B0002DE9F0410546002700F060FA324E3068F4
:1031C00008B9FFF751FD706905424ED1C5B3083506
:1031D00068070ED005F00700C0F108000544680735
:1031E00007D0502080F31188BFF34F8FBFF36F8F4C
:1031F000FEE72DB37068854237D823481830014662
:103200000C6801E020460C466168A94202D22168A0
:103210000029F7D131688C4227D007682168016006
:1032200060680837411B10290FD96019420708D080
:10323000502080F31188BFF34F8FBFF36F8FFEE7ED
:1032400013E041606560FFF7CFFD61687068401A68
:103250007060B268904200D2B06070690143002093
:10326000C4E90001F068401CF06000F07FFE7807C0
:1032700007D0502080F31188BFF34F8FBFF36F8FBB
:10328000FEE73846BDE8F0817000002010B5031F4E
:103290004FF080741C601B1F21F001011960191F81
:1032A000044B0B6014390A60091F6FF002024438A6
:1032B0000A6010BDF9300008D0E9013201699A6056
:1032C000D0E901235A604A68824201D182684A608B
:1032D000002202610868401E08600868704700000C
:1032E000034B036003F15C000860802010607047AE
:1032F000EC150020044B036003F15C0008604FF400
:10330000807010607047000048180020704700F17E
:1033100008014FF0FF32C0E90112C16001610021D4
:103320000160704700210161704730B50B685A1C7D
:1033300002D000F1080202E0026904E0224654686B
:1033400025689D42FAD953684B6099608A60516044
:1033500008610168491C016030BD42684A60936899
:103360008B6093685960916008610168491C016035
:1033700070470000502080F31188BFF34F8FBFF3D8
:103380006F8F0A494868401C486001280CD10848E2
:10339000006810F0FF0F07D0502080F31188BFF3B2
:1033A0004F8FBFF36F8FFEE7704700009000002043
:1033B00004ED00E00849486828B1401E486001D18A
:1033C00080F311887047502080F31188BFF34F8F2E
:1033D000BFF36F8FFEE700009000002070B500285B
:1033E0002AD0164DA0F1080460686969084207D127
:1033F000502080F31188BFF34F8FBFF36F8FFEE72C
:1034000022683AB1502080F31188BFF34F8FBFF389
:103410006F8FFEE78843606000F030F9606869688C
:10342000084468602046FFF7DFFC2869401C2861DB
:10343000BDE8704000F09ABD70BD00007000002033
:103440004FF0E02000210161816105494FF47A725B
:103450000968B1FBF2F1491E416107210161704722
:103460001800002010B5FCF75BFF114910280ED39F
:1034700000F1E02090F8F0030A78904207D2502043
:1034800080F31188BFF34F8FBFF36F8FFEE70948BA
:103490000068896800F4E060884207D9502080F312
:1034A0001188BFF34F8FBFF36F8FFEE710BD000091
:1034B000900000200CED00E010B5084B002200BF8A
:1034C00053F832401CB1521C082AF9D310BD43F8FE
:1034D000321003EBC201486010BD0000D00F002085
:1034E00070B515460E460446FFF744FF94F94410A4
:1034F0000020491C01D184F8440094F94510491C6E
:1035000001D184F84500FFF755FFA06B28B92A4682
:10351000314604F1240000F051F82046BDE8704027
:10352000FFF710BE10B5020014D00F48006B38B181
:10353000502080F31188BFF34F8FBFF36F8FFEE7EA
:1035400000F09CF800211046FFF768FA00F00EFD2D
:10355000002807D105494FF080500860BFF34F8F16
:10356000BFF36F8F10BD00001C00002004ED00E0D1
:1035700002490A6A0260C968416070471C00002065
:1035800001490120C86170471C00002010B50C469D
:1035900050B1094909681831FFF7C7FE2046BDE858
:1035A00010400121FFF73ABA502080F31188BFF391
:1035B0004F8FBFF36F8FFEE71C00002070B51446DD
:1035C0000D4668B10A4909681831FFF7C6FE0CB10B
:1035D0004FF0FF3521462846BDE87040FFF71EBA80
:1035E000502080F31188BFF34F8FBFF36F8FFEE73A
:1035F0001C00002030B587B00024039405AA04A95C
:1036000003A80494FFF76CFEDDE903010094CDE903
:103610000110002315A11748059A00F084FB164DF0
:103620000028E8621FD000F003FD012809D0401CEB
:1036300019D1502080F31188BFF34F8FBFF36F8FE4
:10364000FEE7502080F31188BFF34F8FBFF36F8FD9
:103650004FF0FF30A86201206861EC6007B0BDE860
:10366000304000F045B807B030BD000049444C453B
:1036700000000000B52C00081C0000200248016B6F
:10368000491C0163704700001C000020164810B55B
:10369000016B11B10121C16110BD0021C16101693E
:1036A000124A01E0B9B1491E01EB810352F82330FF
:1036B000002BF7D001EB810302EB830202F1080437
:1036C00053685B685360A34201D15B685360DA685A
:1036D0000260016110BD502080F31188BFF34F8F4D
:1036E000BFF36F8FFEE700001C00002010100020C9
:1036F0001CB537480168374A914207D1502080F302
:103700001188BFF34F8FBFF36F8FFEE70068314919
:10371000491E884207D1502080F31188BFF34F8F94
:10372000BFF36F8FFEE72C4908780190FF200870E7
:1037300008788DF800009DF800009DF8002000F04A
:10374000F000904207D0502080F31188BFF34F8FD4
:10375000BFF36F8FFEE79DF80000204C00F0500093
:1037600020700720A06005E09DF8002052008DF831
:103770000020401E9DF800201206F5D4A06003280A
:1037800007D0502080F31188BFF34F8FBFF36F8FA6
:10379000FEE74FF44070A060019808700C4820309C
:1037A000016841F470010160016841F070410160FD
:1037B000FFF746FE00206060FCF77AFD08480168CC
:1037C00041F040410160FCF75FFD00201CBD00009E
:1037D00000ED00E071C20F4100E400E09000002025
:1037E00034EF00E010B5502080F31188BFF34F8F05
:1037F000BFF36F8F00F0D6FA18B104494FF0805034
:103800000860002080F3118810BD000004ED00E086
:1038100038B5049D18B153B1CAB181B120E0502030
:1038200080F31188BFF34F8FBFF36F8FFEE75020F7
:1038300080F31188BFF34F8FBFF36F8FFEE75020E7
:1038400080F31188BFF34F8FBFF36F8FFEE739B15D
:10385000502080F31188BFF34F8FBFF36F8FFEE7C7
:1038600050241C46012384F846302B460094FFF771
:1038700051FA204638BD000070B50D46040025D031
:10388000FFF778FDD4E90F20216802FB0011A16049
:103890000021A163216861600A46D4E90F01401E3E
:1038A00000FB0121E16021464FF0FF3001F8440F99
:1038B000487004F110008DB1FFF729FD04F12400D8
:1038C000FFF725FDFFF776FD012070BD502080F346
:1038D0001188BFF34F8FBFF36F8FFEE72169002977
:1038E000F0D000F00BFB0028ECD004494FF08050E2
:1038F0000860BFF34F8FBFF36F8FE3E704ED00E085
:103900002DE9FF4782B01D468A464FF000080400AB
:1039100003D0BAF1000F08D011E0502080F31188D5
:10392000BFF34F8FBFF36F8FFEE7206C38B150208D
:1039300080F31188BFF34F8FBFF36F8FFEE7022D27
:103940000AD1E06B012807D0502080F31188BFF323
:103950004F8FBFF36F8FFEE700F010FA3F4F4FF02D
:1039600000094FF0805648B9049838B1502080F3D0
:103970001188BFF34F8FBFF36F8FFEE7FFF7FAFC9D
:10398000A06BE16B884207D3022D05D00498D0B11B
:10399000B8F1000F1AD01EE02A4651462046FFF724
:1039A00012F9616A19B104F1240000F0A7FA20B1FC
:1039B0003E60BFF34F8FBFF36F8FFFF7FBFC01201B
:1039C00006B0BDE8F087FFF7F5FC22E06846FFF798
:1039D000CFFD4FF00108FFF7EDFCFFF74FFEFFF7BB
:1039E000C9FC94F94400401C01D184F8449094F936
:1039F0004500401C01D184F84590FFF7DBFC04A989
:103A0000684600F029F930B12046FFF79BFB00F033
:103A1000ADFA0020D4E7FFF7ADFCA06BE16B884264
:103A200013D1FFF7C7FC04F110000499FFF7AEFDB6
:103A30002046FFF787FB00F099FA00289ED13E60F0
:103A4000BFF34F8FBFF36F8F98E7FFF7B3FC2046AC
:103A5000FFF778FB00F08AFA90E7000004ED00E041
:103A60002DE9F0471F4690468946040003D0B9F17E
:103A7000000F08D011E0502080F31188BFF34F8F62
:103A8000BFF36F8FFEE7206C38B1502080F31188B0
:103A9000BFF34F8FBFF36F8FFEE7022F0AD1E06BAA
:103AA000012807D0502080F31188BFF34F8FBFF358
:103AB0006F8FFEE7FFF7D6FC5020EFF3118680F3FF
:103AC0001188BFF34F8FBFF36F8FA06BE16B8842FC
:103AD00006D3022F04D0002086F31188BDE8F087BA
:103AE00094F94550A06B3A4649462046FFF76BF8DB
:103AF000681C04D06D1C84F845500120ECE7606A16
:103B00000028FAD004F1240000F0F8F90028F4D0DD
:103B1000B8F1000FF1D00121C8F80010EDE7000066
:103B20002DE9F747002683B08A46040003D0BAF196
:103B3000000F08D011E0502080F31188BFF34F8FA1
:103B4000BFF36F8FFEE7206C38B1502080F31188EF
:103B5000BFF34F8FBFF36F8FFEE700F00FF9DFF871
:103B6000F4804FF000094FF0805748B9059838B1FC
:103B7000502080F31188BFF34F8FBFF36F8FFEE7A4
:103B8000FFF7F8FBA56BC5B151462046FFF708F8D3
:103B90006D1EA563206950B104F1100000F0AEF96C
:103BA00028B1C8F80070BFF34F8FBFF36F8FFFF7D6
:103BB00001FC012006B0BDE8F087059808B11EB1F0
:103BC00006E0FFF7F7FB27E06846FFF7D1FC012688
:103BD000FFF7F0FBFFF752FDFFF7CCFB94F9440031
:103BE000401C01D184F8449094F94500401C01D157
:103BF00084F84590FFF7DEFB05A9684600F02CF835
:103C0000002820460AD0FFF79DFA00F0AFF92046C1
:103C1000FFF72CF90028B3D00020CBE7FFF726F9F7
:103C200090B104F124000599FFF7B0FC2046FFF79E
:103C300089FA00F09BF90028A2D1C8F80070BFF300
:103C40004F8FBFF36F8F9BE72046FFF77BFA00F0A3
:103C50008DF995E704ED00E02DE9F0410C460500F3
:103C600011D0C4B1FFF786FB174BDA686E68206885
:103C7000911B471C17D02F681B6A9F4219D0964290
:103C800017D8012410E0502080F31188BFF34F8F24
:103C9000BFF36F8FFEE7502080F31188BFF34F8F83
:103CA000BFF36F8FFEE70024FFF784FB2046BDE8DB
:103CB000F081884205D9401A20602846FFF758FC59
:103CC000F1E700202060DCE71C0000202DE9FF5F09
:103CD0008346DDE90E87994616468A469000FFF72F
:103CE00067FA05001CD05C20FFF762FA040014D0CC
:103CF0000020256384F85900CDE90240CDE9008712
:103D00004B46324651465846FFF716F82046FEF716
:103D1000B3FE012004B0BDE8F09F2846FFF75EFB2C
:103D20004FF0FF30F6E7F0B585B0DDE90B640A9D92
:103D3000A6B1DCB15C2700972663022684F859609F
:103D4000002604AFCDE90246CDE90057FEF7F4FFA7
:103D50002046FEF791FE049805B0F0BD502080F398
:103D60001188BFF34F8FBFF36F8FFEE7502080F3B2
:103D70001188BFF34F8FBFF36F8FFEE7054841698E
:103D800019B1006B18B10020704701207047022064
:103D9000704700001C0000200148C0687047000008
:103DA0001C0000202DE9F041324C0027206B38B177
:103DB000A069401CA061FFF7A9FA3846BDE8F08170
:103DC000E668761CE66013D1606B006838B150205D
:103DD00080F31188BFF34F8FBFF36F8FFEE7606BE7
:103DE000A16B6163A063206A401C2062FFF72AF97F
:103DF000A06ADFF88480864209D3606B006890B1C6
:103E0000606BC068C568686886420FD2A06220688F
:103E1000C06A00EB800158F82100012800D9012771
:103E2000A069F8B120E04FF0FF30EFE7281DFFF761
:103E300043FAA86A18B105F11800FFF73DFAE86ADD
:103E40002169884200D9206100EB800108EB8100E4
:103E5000291DFFF782FAE86A2168C96A8842CCD333
:103E60000127CAE7FFF752FAE0690028A5D0012729
:103E7000A3E700001C0000201010002070B5040013
:103E80004FF0000133D01B4D2868844207D05020EA
:103E900080F31188BFF34F8FBFF36F8FFEE7206D64
:103EA00038B1401E2065E36CE26A9A421FD040B1EF
:103EB0001DE0502080F31188BFF34F8FBFF36F8F49
:103EC000FEE7201DFFF7F8F9E06CE062C0F1380072
:103ED000A061E06A2969884200D92861064900EB9F
:103EE000800001EB8000211DFFF737FA0121084611
:103EF00070BD00001C0000201010002070B5C068CC
:103F0000C46854B104F118000646FFF7D5F9144D02
:103F1000286B50B13146134815E0502080F31188CA
:103F2000BFF34F8FBFF36F8FFEE7201DFFF7C4F97C
:103F3000E06A2969884200D928610B4900EB8000BA
:103F400001EB8000211DFFF708FAE06A2968C96AC1
:103F5000884202D90120E86170BD002070BD0000D8
:103F60001C00002098140020101000202DE9F047BC
:103F70002C4D00242746286B38B1FFF7FBF9286B3E
:103F8000401E2863286B40B146E0502080F3118822
:103F9000BFF34F8FBFF36F8FFEE7A968224E01205A
:103FA000D1B3A6F5916980463068E0B1F068C46885
:103FB00004F11800FFF780F9201DFFF77DF9E06A92
:103FC0002969884200D9286100EB800109EB810052
:103FD000211DFFF7C2F9E06A2968C96A8842E3D364
:103FE000C5F81C80E0E70CB1FFF72CF8AC694CB1C8
:103FF0004FEA0806FFF7D6FE00B1EE61641EF9D164
:104000000020A861E86938B108490127380708602D
:10401000BFF34F8FBFF36F8FFFF7CCF93846BDE882
:10402000F08700001C0000209814002004ED00E040
:1040300010B586B0FEF788FD114C2068B8B100209D
:104040000390049005AA04A903A8FFF753F9DDE93A
:10405000032102208DE8070000230AA10B48059ADE
:10406000FFF761FE606010B106B0012010BD502066
:1040700080F31188BFF34F8FBFF36F8FFEE700000F
:1040800058000020546D72205376630021310008DF
:104090002DE9FF411E46134602000A9D4FF0000025
:1040A00016D0144C2768002F0FD0CDE900130292D0
:1040B000062917DAFFF762FE02284FF000030FD03F
:1040C000002269462068FFF71BFC04B0BDE8F081C0
:1040D000502080F31188BFF34F8FBFF36F8FFEE73F
:1040E0002A46EEE70023324669463846FFF7B8FC19
:1040F000EBE70000580000204FF04070E1EE100A9E
:104100007047000078410008000000000000000037
:104110000000000000000000000200001800000085
:1041200000000000000000006C41000800000000DA
:10413000000000000000000000000000000200007D
:10414000180000000000000000000000000610162B
:104150000006101600000000000000000102030429
:104160000607080900000000010203046D7954618C
:10417000736B30320000000064656661756C7454C6
:1041800061736B00A441000800000020540D000082
:10419000C4010008544B0008540D0020C451000015
:1041A00020020008C132018210037924F41AAA0106
:1041B0006125FFFFD7E81E7DF8450849022B51F81D
:1041C000061C45084510100A69085108410847FEB9
:1041D0004023B7F1137FFC1380011203200905600F
:1041E00009183104C1023C1FF01001290813D4F250
:1041F000B809047F04410441244902101614241212
:1042000004210440948088B5C820403F7E489085B2
:104210000801143FF801120133FFFE100A207FFC51
:104220000820042004A0180D40B4FD0840084010E8
:104230004023FC4808180E17FE3010501097FE104F
:104240001012101102190D1420D6D812103BF83F8D
:104250003C1A01801A117C29044952295014D0C2F9
:10426000101508047F78180D4022401440FF7E0886
:104270004808487F04180E2A484948888828881129
:1042800008C8E7104519023D7CFE44220218084286
:104290004424441444080416227C42448023C9EE7A
:1042A000180C27FC140414A4811042084092100F2B
:1042B00017FC2040E0E0215022482C4620404808CE
:1042C00040DBDA11041124025AFD082902180E1DE0
:1042D00024E124422402040404CAD002A6212B7F34
:1042E000FCEA29A05B2108022C2821101213BAE84D
:1042F000101E108020407C1F4484644454444404B5
:104300004C2440447EC40247025C7A4802400A1CA6
:1043100004D1B68819E01C111001022DF11017D03C
:104320000C1902C80C12150A190A11060102B5E788
:104330005E9908160A010201021CFED7D3841AF8FE
:10434000EF122015400180014BFFFE324902120599
:1043500012021AD3AA1A021812041204280D0FF01E
:10436000081018102FF0481088100C190226500859
:1043700020CFDE180A7BF84A08520853F86206106C
:10438000124BF84A444A486A30522042104288434D
:10439000064213B9AB1B800402180D0840084010F8
:1043A0002020104208820650200A40082010203F9A
:1043B000F0101023CBBE133FF812082C087FE8063C
:1043C0001B1F88633902290A1112281C10CDBCAAB0
:1043D0001820FC4204420447E44C44528441044601
:1043E000C4783C43044084460441847FFC4004D0AC
:1043F000CE22680E8412041208121012221202FF3A
:10440000C40A28132204220842108260D3A2082082
:104410000820FFFE0820DE2D1FF01110022DFFFEE8
:1044200002808C38083018C006CEC402FA1CFFFE89
:104430001001292E160440028001892213CAD410CB
:104440000A2820241024102007FE280820F0201716
:10445000E01120461009151019CA170A02062C028D
:10446000D6D04229026D3FF8210802290C691813A1
:10447000B2E2180B0427C414441454855445021A9C
:10448000150210112554E5542104228422442414D9
:104490000808D2BA282480204017FE11208120422B
:1044A0003C4244166412942348E2482230222022DF
:1044B0005022880306BEA70FE0A06906218F7EFC6C
:1044C000428442840623CFD42B1FF0C86906200FF4
:1044D000044044442444144814500440FFFE23CABA
:1044E000BE833FF82BFFFE9C19CC10090821044124
:1044F0000281020512022BC6C122196119C01F24B4
:104500001022202FF880180B203FFC22204220444C
:104510002084191808D0FD20801080103C12FE184D
:104520000921FC20243C2424A0022ABC0616456054
:10453000553E8A3CD7AA20012817FDFC4020504058
:1045400093FEFC40108011FC1C04F0885050102099
:104550009A14B3CC081E1DFCF104110214FDFC10CA
:104560001230180939FE5420542091FC20152013D4
:10457000FE1024D0F20115803FFE201B23F8133ECD
:10458000A020402FFE832A40011381401480C6AC36
:104590005B4010021A1F4429022B1FE0403A107E94
:1045A0002D4020D0E8CC120110087FFE41029D74FE
:1045B000012B1D70F41A02141B24880226A8201057
:1045C000D2AA1F7FFC04400440142F4824483FF81F
:1045D0000210180E2008401C80038006703808D096
:1045E000A36019521411FEFC280E108831043A02FF
:1045F00054885088905010CA181D5010881306D740
:10460000BC01404120212023FE022016201BFC1269
:1046100020222023FCE206190813FE2212022BB4EA
:10462000A590180A782049FC91247D245502101089
:104630007DFC552454207C28542457FE45028C10C0
:104640000CC3FE1110111017FC1110FC00191613E9
:10465000F8120817F81A0833F8D04017FC10A01108
:104660001052082406A3AC1A30021210322013C7CD
:10467000EB100A40404027FC204003F81540E7FEBD
:10468000202D23F8220804180C2BF83208222802C7
:1046900010B5E3028E12022B03FC061B3FF0D71964
:1046A00002233FF0100C2488224442448004BBF7CC
:1046B0000129024B3FF8082BFFFE064B210802138D
:1046C0003FF82408C4BB1E3FF82008200E18082419
:1046D0001022202FF80426100C11103FF8D11611CB
:1046E0005011200113B6C119EE1511FC1020101B3A
:1046F0002003FEF002109410501110109013FE14BD
:1047000028184410820302BACD04120E1278180E33
:10471000087C0844FF44084418441C442A021C48EE
:104720004488121208120814D1D5101C08FE7F60AC
:10473000280B147C7F4444544854525406280D518D
:10474000544228442488423082C9AB2868091FE0BB
:1047500020204040BFF8A019732A0202231FFE3810
:1047600018D6B5084008400FFC1040104033F8320E
:104770000853F8920813F812041612081FFE10438B
:10478000D6D022103A18063903DF1FFFF818101888
:104790000349157C10101027593649392173CEC4AE
:1047A0006A201A180908083FFFFC01018003112242
:1047B00081190322832242224622246A2C3E226649
:1047C00017C3800301F00C1B7C30D02163B2E212CE
:1047D0001018090809FE080D86080103380AB66892
:1047E00041B64833B64813036A05032B09A60328CC
:1047F0001439A44819600818580818C408188608FD
:104800001B0238045A1173CAD41201151001F008A2
:1048100013980C138804258404FFFE1A80031809DA
:104820007E028004FF800408032DC00408400310AA
:10483000104860048922050E320670120E401C04D6
:10484000220E32025ACF4A1503FFC0021360021A29
:104850004003390C2909590C1380401A62E11810E1
:10486000181042100C4220064240064280024312B9
:1048700095083FFFFC83CABEE5200FFFF01B047FB5
:104880002919B912181301192018031880031840A8
:104890000618200C183008181810180C2018084199
:1048A000F81A703B4183B2E2220814100C20380938
:1048B00018063FF018033030041114303318143246
:1048C0003398180D33B3183033331818B333181C1A
:1048D000041A0C041A09102A01044A32045A020468
:1048E0001A0604180B7E3623181C2603180C050420
:1048F000180D0C80180C0840180C1870180C541562
:104900000C6031F05D80107001829BCAD4BC311400
:1049100007C00C14067006140630031B0610041A98
:10492000180412081A3FD611320649041A01041459
:104930007F801614031FFA1C030182049A83042A41
:1049400081041C80030904100E118CC40321F0C4DF
:104950000343C06403DE14740388143C03801A1CF0
:104960007E5A0C711183C0FD1916111301C0141861
:104970000180100C1001801010037FF8100306183E
:1049800020100206021006060310060403100F0C86
:1049900023100A0FFB101A0823101218631022109C
:1049A000041908180B422C43100226C310024604B7
:1049B0002E0583100201041E031002030240194455
:1049C0001A04041A08041A1004162003F0024023E3
:1049D0007002422093B3CC32101279180A1003E10E
:1049E000FFF83D818030C7C90458088980307FFDB9
:1049F000FFF0101119CC10091803E3FFFC03B804F1
:104A00001B0798041388041A0504140D8004180A5F
:104A1000098004101181FFF8110C1A21041A4104B5
:104A20004A01041E08018FFFFCE639F241C3CFD4CE
:104A30002A011814FFFF801A8024A90409191439C7
:104A40004A2B0C3004101520080C3070060C306016
:104A5000070C30C0038C3180018C3324018C321B55
:104A60008C34202A3824C6303FFFFFF8F3CABE1921
:104A70009E11061BC003FFFFE01A18461AFCD1194D
:104A8000B3590423618823F18413C183181F01C122
:104A90008180018180C0030180E0060180700C01EB
:104AA0008038080180181001801020612C1A1F0422
:104AB00032076202F3C6C11A207E23F0037A300463
:104AC0001910192D1530020402140206071C0203E6
:104AD00006041204100C02010860027FFFF00602B7
:104AE00006D9041B3005E81A040C1A0C044B0806FE
:104AF000041B100C041308061B2030041B6006B9AD
:104B0000520493D0F2420132C0126012041C603091
:104B10000746320619041E40063FFFC03413E00664
:104B200012031C060104141AD8041A60041A700433
:104B30004B30102C143038041B3020044B400C0434
:104B4000119A08043A100412201C2007E00612E013
:044B50001A400241C4
:040000050800018965
:00000001FF
